{
	"watt.sol": {
		"WattCoin": {
			"abi": [
				{
					"inputs": [
						{
							"internalType": "string",
							"name": "tokenName",
							"type": "string"
						},
						{
							"internalType": "string",
							"name": "tokenSymbol",
							"type": "string"
						}
					],
					"stateMutability": "nonpayable",
					"type": "constructor"
				},
				{
					"anonymous": false,
					"inputs": [
						{
							"indexed": true,
							"internalType": "address",
							"name": "owner",
							"type": "address"
						},
						{
							"indexed": true,
							"internalType": "address",
							"name": "spender",
							"type": "address"
						},
						{
							"indexed": false,
							"internalType": "uint256",
							"name": "value",
							"type": "uint256"
						}
					],
					"name": "Approval",
					"type": "event"
				},
				{
					"anonymous": false,
					"inputs": [
						{
							"indexed": true,
							"internalType": "address",
							"name": "from",
							"type": "address"
						},
						{
							"indexed": true,
							"internalType": "address",
							"name": "to",
							"type": "address"
						},
						{
							"indexed": false,
							"internalType": "uint256",
							"name": "value",
							"type": "uint256"
						}
					],
					"name": "Transfer",
					"type": "event"
				},
				{
					"inputs": [
						{
							"internalType": "address",
							"name": "owner",
							"type": "address"
						},
						{
							"internalType": "address",
							"name": "spender",
							"type": "address"
						}
					],
					"name": "allowance",
					"outputs": [
						{
							"internalType": "uint256",
							"name": "",
							"type": "uint256"
						}
					],
					"stateMutability": "view",
					"type": "function"
				},
				{
					"inputs": [
						{
							"internalType": "address",
							"name": "spender",
							"type": "address"
						},
						{
							"internalType": "uint256",
							"name": "amount",
							"type": "uint256"
						}
					],
					"name": "approve",
					"outputs": [
						{
							"internalType": "bool",
							"name": "",
							"type": "bool"
						}
					],
					"stateMutability": "nonpayable",
					"type": "function"
				},
				{
					"inputs": [
						{
							"internalType": "address",
							"name": "_spender",
							"type": "address"
						},
						{
							"internalType": "uint256",
							"name": "_value",
							"type": "uint256"
						},
						{
							"internalType": "bytes",
							"name": "_extraData",
							"type": "bytes"
						}
					],
					"name": "approveAndCall",
					"outputs": [
						{
							"internalType": "bool",
							"name": "success",
							"type": "bool"
						}
					],
					"stateMutability": "nonpayable",
					"type": "function"
				},
				{
					"inputs": [
						{
							"internalType": "address",
							"name": "account",
							"type": "address"
						}
					],
					"name": "balanceOf",
					"outputs": [
						{
							"internalType": "uint256",
							"name": "",
							"type": "uint256"
						}
					],
					"stateMutability": "view",
					"type": "function"
				},
				{
					"inputs": [
						{
							"internalType": "uint256",
							"name": "amount",
							"type": "uint256"
						}
					],
					"name": "burn",
					"outputs": [],
					"stateMutability": "nonpayable",
					"type": "function"
				},
				{
					"inputs": [
						{
							"internalType": "address",
							"name": "account",
							"type": "address"
						},
						{
							"internalType": "uint256",
							"name": "amount",
							"type": "uint256"
						}
					],
					"name": "burnFrom",
					"outputs": [],
					"stateMutability": "nonpayable",
					"type": "function"
				},
				{
					"inputs": [],
					"name": "decimals",
					"outputs": [
						{
							"internalType": "uint8",
							"name": "",
							"type": "uint8"
						}
					],
					"stateMutability": "view",
					"type": "function"
				},
				{
					"inputs": [
						{
							"internalType": "address",
							"name": "spender",
							"type": "address"
						},
						{
							"internalType": "uint256",
							"name": "subtractedValue",
							"type": "uint256"
						}
					],
					"name": "decreaseAllowance",
					"outputs": [
						{
							"internalType": "bool",
							"name": "",
							"type": "bool"
						}
					],
					"stateMutability": "nonpayable",
					"type": "function"
				},
				{
					"inputs": [
						{
							"internalType": "address",
							"name": "spender",
							"type": "address"
						},
						{
							"internalType": "uint256",
							"name": "addedValue",
							"type": "uint256"
						}
					],
					"name": "increaseAllowance",
					"outputs": [
						{
							"internalType": "bool",
							"name": "",
							"type": "bool"
						}
					],
					"stateMutability": "nonpayable",
					"type": "function"
				},
				{
					"inputs": [],
					"name": "name",
					"outputs": [
						{
							"internalType": "string",
							"name": "",
							"type": "string"
						}
					],
					"stateMutability": "view",
					"type": "function"
				},
				{
					"inputs": [],
					"name": "symbol",
					"outputs": [
						{
							"internalType": "string",
							"name": "",
							"type": "string"
						}
					],
					"stateMutability": "view",
					"type": "function"
				},
				{
					"inputs": [],
					"name": "totalSupply",
					"outputs": [
						{
							"internalType": "uint256",
							"name": "",
							"type": "uint256"
						}
					],
					"stateMutability": "view",
					"type": "function"
				},
				{
					"inputs": [
						{
							"internalType": "address",
							"name": "to",
							"type": "address"
						},
						{
							"internalType": "uint256",
							"name": "amount",
							"type": "uint256"
						}
					],
					"name": "transfer",
					"outputs": [
						{
							"internalType": "bool",
							"name": "",
							"type": "bool"
						}
					],
					"stateMutability": "nonpayable",
					"type": "function"
				},
				{
					"inputs": [
						{
							"internalType": "address",
							"name": "from",
							"type": "address"
						},
						{
							"internalType": "address",
							"name": "to",
							"type": "address"
						},
						{
							"internalType": "uint256",
							"name": "amount",
							"type": "uint256"
						}
					],
					"name": "transferFrom",
					"outputs": [
						{
							"internalType": "bool",
							"name": "",
							"type": "bool"
						}
					],
					"stateMutability": "nonpayable",
					"type": "function"
				}
			],
			"devdoc": {
				"events": {
					"Approval(address,address,uint256)": {
						"details": "Emitted when the allowance of a `spender` for an `owner` is set by a call to {approve}. `value` is the new allowance."
					},
					"Transfer(address,address,uint256)": {
						"details": "Emitted when `value` tokens are moved from one account (`from`) to another (`to`). Note that `value` may be zero."
					}
				},
				"kind": "dev",
				"methods": {
					"allowance(address,address)": {
						"details": "See {IERC20-allowance}."
					},
					"approve(address,uint256)": {
						"details": "See {IERC20-approve}. NOTE: If `amount` is the maximum `uint256`, the allowance is not updated on `transferFrom`. This is semantically equivalent to an infinite approval. Requirements: - `spender` cannot be the zero address."
					},
					"balanceOf(address)": {
						"details": "See {IERC20-balanceOf}."
					},
					"burn(uint256)": {
						"details": "Destroys `amount` tokens from the caller. See {ERC20-_burn}."
					},
					"burnFrom(address,uint256)": {
						"details": "Destroys `amount` tokens from `account`, deducting from the caller's allowance. See {ERC20-_burn} and {ERC20-allowance}. Requirements: - the caller must have allowance for ``accounts``'s tokens of at least `amount`."
					},
					"decimals()": {
						"details": "Returns the number of decimals used to get its user representation. For example, if `decimals` equals `2`, a balance of `505` tokens should be displayed to a user as `5.05` (`505 / 10 ** 2`). Tokens usually opt for a value of 18, imitating the relationship between Ether and Wei. This is the default value returned by this function, unless it's overridden. NOTE: This information is only used for _display_ purposes: it in no way affects any of the arithmetic of the contract, including {IERC20-balanceOf} and {IERC20-transfer}."
					},
					"decreaseAllowance(address,uint256)": {
						"details": "Atomically decreases the allowance granted to `spender` by the caller. This is an alternative to {approve} that can be used as a mitigation for problems described in {IERC20-approve}. Emits an {Approval} event indicating the updated allowance. Requirements: - `spender` cannot be the zero address. - `spender` must have allowance for the caller of at least `subtractedValue`."
					},
					"increaseAllowance(address,uint256)": {
						"details": "Atomically increases the allowance granted to `spender` by the caller. This is an alternative to {approve} that can be used as a mitigation for problems described in {IERC20-approve}. Emits an {Approval} event indicating the updated allowance. Requirements: - `spender` cannot be the zero address."
					},
					"name()": {
						"details": "Returns the name of the token."
					},
					"symbol()": {
						"details": "Returns the symbol of the token, usually a shorter version of the name."
					},
					"totalSupply()": {
						"details": "See {IERC20-totalSupply}."
					},
					"transfer(address,uint256)": {
						"details": "See {IERC20-transfer}. Requirements: - `to` cannot be the zero address. - the caller must have a balance of at least `amount`."
					},
					"transferFrom(address,address,uint256)": {
						"details": "See {IERC20-transferFrom}. Emits an {Approval} event indicating the updated allowance. This is not required by the EIP. See the note at the beginning of {ERC20}. NOTE: Does not update the allowance if the current allowance is the maximum `uint256`. Requirements: - `from` and `to` cannot be the zero address. - `from` must have a balance of at least `amount`. - the caller must have allowance for ``from``'s tokens of at least `amount`."
					}
				},
				"version": 1
			},
			"evm": {
				"assembly": "    /* \"watt.sol\":398:1232  contract WattCoin is ERC20, ERC20Burnable {... */\n  mstore(0x40, 0x80)\n    /* \"watt.sol\":565:737  constructor(... */\n  callvalue\n  dup1\n  iszero\n  tag_1\n  jumpi\n  revert(0x00, 0x00)\ntag_1:\n  pop\n  mload(0x40)\n  sub(codesize, bytecodeSize)\n  dup1\n  bytecodeSize\n  dup4\n  codecopy\n  dup2\n  add\n  0x40\n  dup2\n  swap1\n  mstore\n  tag_2\n  swap2\n  tag_3\n  jump\t// in\ntag_2:\n    /* \"watt.sol\":660:669  tokenName */\n  dup2\n    /* \"watt.sol\":671:682  tokenSymbol */\n  dup2\n    /* \"@openzeppelin/contracts@4.9.3/token/ERC20/ERC20.sol\":2046:2051  _name */\n  0x03\n    /* \"@openzeppelin/contracts@4.9.3/token/ERC20/ERC20.sol\":2046:2059  _name = name_ */\n  tag_7\n    /* \"watt.sol\":660:669  tokenName */\n  dup4\n    /* \"@openzeppelin/contracts@4.9.3/token/ERC20/ERC20.sol\":2046:2051  _name */\n  dup3\n    /* \"@openzeppelin/contracts@4.9.3/token/ERC20/ERC20.sol\":2046:2059  _name = name_ */\n  tag_8\n  jump\t// in\ntag_7:\n  pop\n    /* \"@openzeppelin/contracts@4.9.3/token/ERC20/ERC20.sol\":2069:2076  _symbol */\n  0x04\n    /* \"@openzeppelin/contracts@4.9.3/token/ERC20/ERC20.sol\":2069:2086  _symbol = symbol_ */\n  tag_9\n    /* \"@openzeppelin/contracts@4.9.3/token/ERC20/ERC20.sol\":2079:2086  symbol_ */\n  dup3\n    /* \"@openzeppelin/contracts@4.9.3/token/ERC20/ERC20.sol\":2069:2076  _symbol */\n  dup3\n    /* \"@openzeppelin/contracts@4.9.3/token/ERC20/ERC20.sol\":2069:2086  _symbol = symbol_ */\n  tag_8\n  jump\t// in\ntag_9:\n  pop\n    /* \"@openzeppelin/contracts@4.9.3/token/ERC20/ERC20.sol\":1980:2093  constructor(string memory name_, string memory symbol_) {... */\n  pop\n  pop\n    /* \"watt.sol\":695:729  _mint(msg.sender, _INITIAL_SUPPLY) */\n  tag_11\n    /* \"watt.sol\":701:711  msg.sender */\n  caller\n    /* \"watt.sol\":534:556  1_000_000_000 * 10**18 */\n  0x033b2e3c9fd0803ce8000000\n    /* \"watt.sol\":695:700  _mint */\n  shl(0x20, tag_12)\n    /* \"watt.sol\":695:729  _mint(msg.sender, _INITIAL_SUPPLY) */\n  0x20\n  shr\n  jump\t// in\ntag_11:\n    /* \"watt.sol\":565:737  constructor(... */\n  pop\n  pop\n    /* \"watt.sol\":398:1232  contract WattCoin is ERC20, ERC20Burnable {... */\n  jump(tag_34)\n    /* \"@openzeppelin/contracts@4.9.3/token/ERC20/ERC20.sol\":8520:9055  function _mint(address account, uint256 amount) internal virtual {... */\ntag_12:\n  sub(shl(0xa0, 0x01), 0x01)\n    /* \"@openzeppelin/contracts@4.9.3/token/ERC20/ERC20.sol\":8603:8624  account != address(0) */\n  dup3\n  and\n    /* \"@openzeppelin/contracts@4.9.3/token/ERC20/ERC20.sol\":8595:8660  require(account != address(0), \"ERC20: mint to the zero address\") */\n  tag_15\n  jumpi\n  mload(0x40)\n  shl(0xe5, 0x461bcd)\n  dup2\n  mstore\n    /* \"#utility.yul\":4147:4149   */\n  0x20\n    /* \"@openzeppelin/contracts@4.9.3/token/ERC20/ERC20.sol\":8595:8660  require(account != address(0), \"ERC20: mint to the zero address\") */\n  0x04\n  dup3\n  add\n    /* \"#utility.yul\":4129:4150   */\n  mstore\n    /* \"#utility.yul\":4186:4188   */\n  0x1f\n    /* \"#utility.yul\":4166:4184   */\n  0x24\n  dup3\n  add\n    /* \"#utility.yul\":4159:4189   */\n  mstore\n    /* \"#utility.yul\":4225:4258   */\n  0x45524332303a206d696e7420746f20746865207a65726f206164647265737300\n    /* \"#utility.yul\":4205:4223   */\n  0x44\n  dup3\n  add\n    /* \"#utility.yul\":4198:4259   */\n  mstore\n    /* \"#utility.yul\":4276:4294   */\n  0x64\n  add\n    /* \"@openzeppelin/contracts@4.9.3/token/ERC20/ERC20.sol\":8595:8660  require(account != address(0), \"ERC20: mint to the zero address\") */\n  mload(0x40)\n  dup1\n  swap2\n  sub\n  swap1\n  revert\ntag_15:\n    /* \"@openzeppelin/contracts@4.9.3/token/ERC20/ERC20.sol\":8747:8753  amount */\n  dup1\n    /* \"@openzeppelin/contracts@4.9.3/token/ERC20/ERC20.sol\":8731:8743  _totalSupply */\n  0x02\n  0x00\n    /* \"@openzeppelin/contracts@4.9.3/token/ERC20/ERC20.sol\":8731:8753  _totalSupply += amount */\n  dup3\n  dup3\n  sload\n  tag_20\n  swap2\n  swap1\n  tag_21\n  jump\t// in\ntag_20:\n  swap1\n  swap2\n  sstore\n  pop\n  pop\n  sub(shl(0xa0, 0x01), 0x01)\n    /* \"@openzeppelin/contracts@4.9.3/token/ERC20/ERC20.sol\":8899:8917  _balances[account] */\n  dup3\n  and\n    /* \"@openzeppelin/contracts@4.9.3/token/ERC20/ERC20.sol\":8899:8908  _balances */\n  0x00\n    /* \"@openzeppelin/contracts@4.9.3/token/ERC20/ERC20.sol\":8899:8917  _balances[account] */\n  dup2\n  dup2\n  mstore\n  0x20\n  dup2\n  dup2\n  mstore\n  0x40\n  dup1\n  dup4\n  keccak256\n    /* \"@openzeppelin/contracts@4.9.3/token/ERC20/ERC20.sol\":8899:8927  _balances[account] += amount */\n  dup1\n  sload\n  dup7\n  add\n  swap1\n  sstore\n    /* \"@openzeppelin/contracts@4.9.3/token/ERC20/ERC20.sol\":8952:8989  Transfer(address(0), account, amount) */\n  mload\n    /* \"#utility.yul\":4678:4703   */\n  dup5\n  dup2\n  mstore\n    /* \"@openzeppelin/contracts@4.9.3/token/ERC20/ERC20.sol\":8952:8989  Transfer(address(0), account, amount) */\n  0xddf252ad1be2c89b69c2b068fc378daa952ba7f163c4a11628f55a4df523b3ef\n  swap2\n    /* \"#utility.yul\":4651:4669   */\n  add\n    /* \"@openzeppelin/contracts@4.9.3/token/ERC20/ERC20.sol\":8952:8989  Transfer(address(0), account, amount) */\n  mload(0x40)\n  dup1\n  swap2\n  sub\n  swap1\n  log3\n    /* \"@openzeppelin/contracts@4.9.3/token/ERC20/ERC20.sol\":8520:9055  function _mint(address account, uint256 amount) internal virtual {... */\n  pop\n  pop\n  jump\t// out\n    /* \"@openzeppelin/contracts@4.9.3/token/ERC20/ERC20.sol\":12073:12164  function _beforeTokenTransfer(address from, address to, uint256 amount) internal virtual {} */\ntag_19:\n  pop\n  pop\n  pop\n  jump\t// out\n    /* \"#utility.yul\":14:141   */\ntag_28:\n    /* \"#utility.yul\":75:85   */\n  0x4e487b71\n    /* \"#utility.yul\":70:73   */\n  0xe0\n    /* \"#utility.yul\":66:86   */\n  shl\n    /* \"#utility.yul\":63:64   */\n  0x00\n    /* \"#utility.yul\":56:87   */\n  mstore\n    /* \"#utility.yul\":106:110   */\n  0x41\n    /* \"#utility.yul\":103:104   */\n  0x04\n    /* \"#utility.yul\":96:111   */\n  mstore\n    /* \"#utility.yul\":130:134   */\n  0x24\n    /* \"#utility.yul\":127:128   */\n  0x00\n    /* \"#utility.yul\":120:135   */\n  revert\n    /* \"#utility.yul\":146:869   */\ntag_29:\n    /* \"#utility.yul\":200:205   */\n  0x00\n    /* \"#utility.yul\":253:256   */\n  dup3\n    /* \"#utility.yul\":246:250   */\n  0x1f\n    /* \"#utility.yul\":238:244   */\n  dup4\n    /* \"#utility.yul\":234:251   */\n  add\n    /* \"#utility.yul\":230:257   */\n  slt\n    /* \"#utility.yul\":220:275   */\n  tag_37\n  jumpi\n    /* \"#utility.yul\":271:272   */\n  0x00\n    /* \"#utility.yul\":268:269   */\n  0x00\n    /* \"#utility.yul\":261:273   */\n  revert\n    /* \"#utility.yul\":220:275   */\ntag_37:\n    /* \"#utility.yul\":298:311   */\n  dup2\n  mload\n  sub(shl(0x40, 0x01), 0x01)\n    /* \"#utility.yul\":323:353   */\n  dup2\n  gt\n    /* \"#utility.yul\":320:376   */\n  iszero\n  tag_39\n  jumpi\n    /* \"#utility.yul\":356:374   */\n  tag_39\n  tag_28\n  jump\t// in\ntag_39:\n    /* \"#utility.yul\":405:407   */\n  0x40\n    /* \"#utility.yul\":399:408   */\n  mload\n    /* \"#utility.yul\":497:499   */\n  0x1f\n    /* \"#utility.yul\":459:476   */\n  dup3\n  add\n  not(0x1f)\n    /* \"#utility.yul\":455:486   */\n  swap1\n  dup2\n  and\n    /* \"#utility.yul\":488:490   */\n  0x3f\n    /* \"#utility.yul\":451:491   */\n  add\n    /* \"#utility.yul\":447:501   */\n  and\n    /* \"#utility.yul\":435:502   */\n  dup2\n  add\n  sub(shl(0x40, 0x01), 0x01)\n    /* \"#utility.yul\":517:551   */\n  dup2\n  gt\n    /* \"#utility.yul\":553:575   */\n  dup3\n  dup3\n  lt\n    /* \"#utility.yul\":514:576   */\n  or\n    /* \"#utility.yul\":511:599   */\n  iszero\n  tag_41\n  jumpi\n    /* \"#utility.yul\":579:597   */\n  tag_41\n  tag_28\n  jump\t// in\ntag_41:\n    /* \"#utility.yul\":615:617   */\n  0x40\n    /* \"#utility.yul\":608:630   */\n  mstore\n    /* \"#utility.yul\":639:661   */\n  dup2\n  dup2\n  mstore\n    /* \"#utility.yul\":680:699   */\n  dup4\n  dup3\n  add\n    /* \"#utility.yul\":701:705   */\n  0x20\n    /* \"#utility.yul\":676:706   */\n  add\n    /* \"#utility.yul\":673:712   */\n  dup6\n  lt\n    /* \"#utility.yul\":670:729   */\n  iszero\n  tag_42\n  jumpi\n    /* \"#utility.yul\":725:726   */\n  0x00\n    /* \"#utility.yul\":722:723   */\n  0x00\n    /* \"#utility.yul\":715:727   */\n  revert\n    /* \"#utility.yul\":670:729   */\ntag_42:\n    /* \"#utility.yul\":782:788   */\n  dup2\n    /* \"#utility.yul\":775:779   */\n  0x20\n    /* \"#utility.yul\":767:773   */\n  dup6\n    /* \"#utility.yul\":763:780   */\n  add\n    /* \"#utility.yul\":756:760   */\n  0x20\n    /* \"#utility.yul\":748:754   */\n  dup4\n    /* \"#utility.yul\":744:761   */\n  add\n    /* \"#utility.yul\":738:789   */\n  mcopy\n    /* \"#utility.yul\":837:838   */\n  0x00\n    /* \"#utility.yul\":809:828   */\n  swap2\n  dup2\n  add\n    /* \"#utility.yul\":830:834   */\n  0x20\n    /* \"#utility.yul\":805:835   */\n  add\n    /* \"#utility.yul\":798:839   */\n  swap2\n  swap1\n  swap2\n  mstore\n    /* \"#utility.yul\":813:819   */\n  swap4\n    /* \"#utility.yul\":146:869   */\n  swap3\n  pop\n  pop\n  pop\n  jump\t// out\n    /* \"#utility.yul\":874:1431   */\ntag_3:\n    /* \"#utility.yul\":973:979   */\n  0x00\n    /* \"#utility.yul\":981:987   */\n  0x00\n    /* \"#utility.yul\":1034:1036   */\n  0x40\n    /* \"#utility.yul\":1022:1031   */\n  dup4\n    /* \"#utility.yul\":1013:1020   */\n  dup6\n    /* \"#utility.yul\":1009:1032   */\n  sub\n    /* \"#utility.yul\":1005:1037   */\n  slt\n    /* \"#utility.yul\":1002:1054   */\n  iszero\n  tag_44\n  jumpi\n    /* \"#utility.yul\":1050:1051   */\n  0x00\n    /* \"#utility.yul\":1047:1048   */\n  0x00\n    /* \"#utility.yul\":1040:1052   */\n  revert\n    /* \"#utility.yul\":1002:1054   */\ntag_44:\n    /* \"#utility.yul\":1077:1093   */\n  dup3\n  mload\n  sub(shl(0x40, 0x01), 0x01)\n    /* \"#utility.yul\":1105:1135   */\n  dup2\n  gt\n    /* \"#utility.yul\":1102:1152   */\n  iszero\n  tag_45\n  jumpi\n    /* \"#utility.yul\":1148:1149   */\n  0x00\n    /* \"#utility.yul\":1145:1146   */\n  0x00\n    /* \"#utility.yul\":1138:1150   */\n  revert\n    /* \"#utility.yul\":1102:1152   */\ntag_45:\n    /* \"#utility.yul\":1171:1232   */\n  tag_46\n    /* \"#utility.yul\":1224:1231   */\n  dup6\n    /* \"#utility.yul\":1215:1221   */\n  dup3\n    /* \"#utility.yul\":1204:1213   */\n  dup7\n    /* \"#utility.yul\":1200:1222   */\n  add\n    /* \"#utility.yul\":1171:1232   */\n  tag_29\n  jump\t// in\ntag_46:\n    /* \"#utility.yul\":1278:1280   */\n  0x20\n    /* \"#utility.yul\":1263:1281   */\n  dup6\n  add\n    /* \"#utility.yul\":1257:1282   */\n  mload\n    /* \"#utility.yul\":1161:1232   */\n  swap1\n  swap4\n  pop\n    /* \"#utility.yul\":1257:1282   */\n  swap1\n  pop\n  sub(shl(0x40, 0x01), 0x01)\n    /* \"#utility.yul\":1294:1326   */\n  dup2\n  gt\n    /* \"#utility.yul\":1291:1343   */\n  iszero\n  tag_47\n  jumpi\n    /* \"#utility.yul\":1339:1340   */\n  0x00\n    /* \"#utility.yul\":1336:1337   */\n  0x00\n    /* \"#utility.yul\":1329:1341   */\n  revert\n    /* \"#utility.yul\":1291:1343   */\ntag_47:\n    /* \"#utility.yul\":1362:1425   */\n  tag_48\n    /* \"#utility.yul\":1417:1424   */\n  dup6\n    /* \"#utility.yul\":1406:1414   */\n  dup3\n    /* \"#utility.yul\":1395:1404   */\n  dup7\n    /* \"#utility.yul\":1391:1415   */\n  add\n    /* \"#utility.yul\":1362:1425   */\n  tag_29\n  jump\t// in\ntag_48:\n    /* \"#utility.yul\":1352:1425   */\n  swap2\n  pop\n  pop\n    /* \"#utility.yul\":874:1431   */\n  swap3\n  pop\n  swap3\n  swap1\n  pop\n  jump\t// out\n    /* \"#utility.yul\":1436:1816   */\ntag_30:\n    /* \"#utility.yul\":1515:1516   */\n  0x01\n    /* \"#utility.yul\":1511:1523   */\n  dup2\n  dup2\n  shr\n  swap1\n    /* \"#utility.yul\":1558:1570   */\n  dup3\n  and\n  dup1\n    /* \"#utility.yul\":1579:1640   */\n  tag_50\n  jumpi\n    /* \"#utility.yul\":1633:1637   */\n  0x7f\n    /* \"#utility.yul\":1625:1631   */\n  dup3\n    /* \"#utility.yul\":1621:1638   */\n  and\n    /* \"#utility.yul\":1611:1638   */\n  swap2\n  pop\n    /* \"#utility.yul\":1579:1640   */\ntag_50:\n    /* \"#utility.yul\":1686:1688   */\n  0x20\n    /* \"#utility.yul\":1678:1684   */\n  dup3\n    /* \"#utility.yul\":1675:1689   */\n  lt\n    /* \"#utility.yul\":1655:1673   */\n  dup2\n    /* \"#utility.yul\":1652:1690   */\n  sub\n    /* \"#utility.yul\":1649:1810   */\n  tag_51\n  jumpi\n    /* \"#utility.yul\":1732:1742   */\n  0x4e487b71\n    /* \"#utility.yul\":1727:1730   */\n  0xe0\n    /* \"#utility.yul\":1723:1743   */\n  shl\n    /* \"#utility.yul\":1720:1721   */\n  0x00\n    /* \"#utility.yul\":1713:1744   */\n  mstore\n    /* \"#utility.yul\":1767:1771   */\n  0x22\n    /* \"#utility.yul\":1764:1765   */\n  0x04\n    /* \"#utility.yul\":1757:1772   */\n  mstore\n    /* \"#utility.yul\":1795:1799   */\n  0x24\n    /* \"#utility.yul\":1792:1793   */\n  0x00\n    /* \"#utility.yul\":1785:1800   */\n  revert\n    /* \"#utility.yul\":1649:1810   */\ntag_51:\n  pop\n    /* \"#utility.yul\":1436:1816   */\n  swap2\n  swap1\n  pop\n  jump\t// out\n    /* \"#utility.yul\":1947:2465   */\ntag_32:\n    /* \"#utility.yul\":2049:2051   */\n  0x1f\n    /* \"#utility.yul\":2044:2047   */\n  dup3\n    /* \"#utility.yul\":2041:2052   */\n  gt\n    /* \"#utility.yul\":2038:2459   */\n  iszero\n  tag_19\n  jumpi\n    /* \"#utility.yul\":2085:2090   */\n  dup1\n    /* \"#utility.yul\":2082:2083   */\n  0x00\n    /* \"#utility.yul\":2075:2091   */\n  mstore\n    /* \"#utility.yul\":2129:2133   */\n  0x20\n    /* \"#utility.yul\":2126:2127   */\n  0x00\n    /* \"#utility.yul\":2116:2134   */\n  keccak256\n    /* \"#utility.yul\":2199:2201   */\n  0x1f\n    /* \"#utility.yul\":2187:2197   */\n  dup5\n    /* \"#utility.yul\":2183:2202   */\n  add\n    /* \"#utility.yul\":2180:2181   */\n  0x05\n    /* \"#utility.yul\":2176:2203   */\n  shr\n    /* \"#utility.yul\":2170:2174   */\n  dup2\n    /* \"#utility.yul\":2166:2204   */\n  add\n    /* \"#utility.yul\":2235:2239   */\n  0x20\n    /* \"#utility.yul\":2223:2233   */\n  dup6\n    /* \"#utility.yul\":2220:2240   */\n  lt\n    /* \"#utility.yul\":2217:2264   */\n  iszero\n  tag_55\n  jumpi\n  pop\n    /* \"#utility.yul\":2258:2262   */\n  dup1\n    /* \"#utility.yul\":2217:2264   */\ntag_55:\n    /* \"#utility.yul\":2313:2315   */\n  0x1f\n    /* \"#utility.yul\":2308:2311   */\n  dup5\n    /* \"#utility.yul\":2304:2316   */\n  add\n    /* \"#utility.yul\":2301:2302   */\n  0x05\n    /* \"#utility.yul\":2297:2317   */\n  shr\n    /* \"#utility.yul\":2291:2295   */\n  dup3\n    /* \"#utility.yul\":2287:2318   */\n  add\n    /* \"#utility.yul\":2277:2318   */\n  swap2\n  pop\n    /* \"#utility.yul\":2368:2449   */\ntag_56:\n    /* \"#utility.yul\":2386:2388   */\n  dup2\n    /* \"#utility.yul\":2379:2384   */\n  dup2\n    /* \"#utility.yul\":2376:2389   */\n  lt\n    /* \"#utility.yul\":2368:2449   */\n  iszero\n  tag_58\n  jumpi\n    /* \"#utility.yul\":2445:2446   */\n  0x00\n    /* \"#utility.yul\":2431:2447   */\n  dup2\n  sstore\n    /* \"#utility.yul\":2412:2413   */\n  0x01\n    /* \"#utility.yul\":2401:2414   */\n  add\n    /* \"#utility.yul\":2368:2449   */\n  jump(tag_56)\ntag_58:\n    /* \"#utility.yul\":2372:2375   */\n  pop\n  pop\n    /* \"#utility.yul\":1947:2465   */\n  pop\n  pop\n  pop\n  jump\t// out\n    /* \"#utility.yul\":2641:3940   */\ntag_8:\n    /* \"#utility.yul\":2761:2771   */\n  dup2\n  mload\n  sub(shl(0x40, 0x01), 0x01)\n    /* \"#utility.yul\":2783:2813   */\n  dup2\n  gt\n    /* \"#utility.yul\":2780:2836   */\n  iszero\n  tag_62\n  jumpi\n    /* \"#utility.yul\":2816:2834   */\n  tag_62\n  tag_28\n  jump\t// in\ntag_62:\n    /* \"#utility.yul\":2845:2942   */\n  tag_63\n    /* \"#utility.yul\":2935:2941   */\n  dup2\n    /* \"#utility.yul\":2895:2933   */\n  tag_64\n    /* \"#utility.yul\":2927:2931   */\n  dup5\n    /* \"#utility.yul\":2921:2932   */\n  sload\n    /* \"#utility.yul\":2895:2933   */\n  tag_30\n  jump\t// in\ntag_64:\n    /* \"#utility.yul\":2889:2893   */\n  dup5\n    /* \"#utility.yul\":2845:2942   */\n  tag_32\n  jump\t// in\ntag_63:\n    /* \"#utility.yul\":2991:2995   */\n  0x20\n    /* \"#utility.yul\":3022:3024   */\n  0x1f\n    /* \"#utility.yul\":3011:3025   */\n  dup3\n  gt\n    /* \"#utility.yul\":3039:3040   */\n  0x01\n    /* \"#utility.yul\":3034:3683   */\n  dup2\n  eq\n  tag_66\n  jumpi\n    /* \"#utility.yul\":3727:3728   */\n  0x00\n    /* \"#utility.yul\":3744:3750   */\n  dup4\n    /* \"#utility.yul\":3741:3830   */\n  iszero\n  tag_67\n  jumpi\n  pop\n    /* \"#utility.yul\":3796:3815   */\n  dup5\n  dup3\n  add\n    /* \"#utility.yul\":3790:3816   */\n  mload\n    /* \"#utility.yul\":3741:3830   */\ntag_67:\n  not(0x00)\n    /* \"#utility.yul\":2598:2599   */\n  0x03\n    /* \"#utility.yul\":2594:2605   */\n  dup6\n  swap1\n  shl\n    /* \"#utility.yul\":2590:2614   */\n  shr\n    /* \"#utility.yul\":2586:2615   */\n  not\n    /* \"#utility.yul\":2576:2616   */\n  and\n    /* \"#utility.yul\":2622:2623   */\n  0x01\n    /* \"#utility.yul\":2618:2629   */\n  dup5\n  swap1\n  shl\n    /* \"#utility.yul\":2573:2630   */\n  or\n    /* \"#utility.yul\":3843:3924   */\n  dup5\n  sstore\n    /* \"#utility.yul\":3004:3934   */\n  jump(tag_58)\n    /* \"#utility.yul\":3034:3683   */\ntag_66:\n    /* \"#utility.yul\":1894:1895   */\n  0x00\n    /* \"#utility.yul\":1887:1901   */\n  dup5\n  dup2\n  mstore\n    /* \"#utility.yul\":1931:1935   */\n  0x20\n    /* \"#utility.yul\":1918:1936   */\n  dup2\n  keccak256\n  not(0x1f)\n    /* \"#utility.yul\":3070:3090   */\n  dup6\n  and\n  swap2\n    /* \"#utility.yul\":3188:3410   */\ntag_70:\n    /* \"#utility.yul\":3202:3209   */\n  dup3\n    /* \"#utility.yul\":3199:3200   */\n  dup2\n    /* \"#utility.yul\":3196:3210   */\n  lt\n    /* \"#utility.yul\":3188:3410   */\n  iszero\n  tag_72\n  jumpi\n    /* \"#utility.yul\":3284:3303   */\n  dup8\n  dup6\n  add\n    /* \"#utility.yul\":3278:3304   */\n  mload\n    /* \"#utility.yul\":3263:3305   */\n  dup3\n  sstore\n    /* \"#utility.yul\":3391:3395   */\n  0x20\n    /* \"#utility.yul\":3376:3396   */\n  swap5\n  dup6\n  add\n  swap5\n    /* \"#utility.yul\":3344:3345   */\n  0x01\n    /* \"#utility.yul\":3332:3346   */\n  swap1\n  swap3\n  add\n  swap2\n    /* \"#utility.yul\":3218:3230   */\n  add\n    /* \"#utility.yul\":3188:3410   */\n  jump(tag_70)\ntag_72:\n    /* \"#utility.yul\":3192:3195   */\n  pop\n    /* \"#utility.yul\":3438:3444   */\n  dup5\n    /* \"#utility.yul\":3429:3436   */\n  dup3\n    /* \"#utility.yul\":3426:3445   */\n  lt\n    /* \"#utility.yul\":3423:3624   */\n  iszero\n  tag_73\n  jumpi\n    /* \"#utility.yul\":3499:3518   */\n  dup7\n  dup5\n  add\n    /* \"#utility.yul\":3493:3519   */\n  mload\n  not(0x00)\n    /* \"#utility.yul\":3582:3583   */\n  0x03\n    /* \"#utility.yul\":3578:3592   */\n  dup8\n  swap1\n  shl\n    /* \"#utility.yul\":3594:3597   */\n  0xf8\n    /* \"#utility.yul\":3574:3598   */\n  and\n    /* \"#utility.yul\":3570:3607   */\n  shr\n    /* \"#utility.yul\":3566:3608   */\n  not\n    /* \"#utility.yul\":3551:3609   */\n  and\n    /* \"#utility.yul\":3536:3610   */\n  dup2\n  sstore\n    /* \"#utility.yul\":3423:3624   */\ntag_73:\n  pop\n  pop\n  pop\n  pop\n    /* \"#utility.yul\":3670:3671   */\n  0x01\n    /* \"#utility.yul\":3654:3668   */\n  swap1\n  dup2\n  shl\n    /* \"#utility.yul\":3650:3672   */\n  add\n    /* \"#utility.yul\":3637:3673   */\n  swap1\n  sstore\n  pop\n    /* \"#utility.yul\":2641:3940   */\n  jump\t// out\n    /* \"#utility.yul\":4305:4527   */\ntag_21:\n    /* \"#utility.yul\":4370:4379   */\n  dup1\n  dup3\n  add\n    /* \"#utility.yul\":4391:4401   */\n  dup1\n  dup3\n  gt\n    /* \"#utility.yul\":4388:4521   */\n  iszero\n  tag_76\n  jumpi\n    /* \"#utility.yul\":4443:4453   */\n  0x4e487b71\n    /* \"#utility.yul\":4438:4441   */\n  0xe0\n    /* \"#utility.yul\":4434:4454   */\n  shl\n    /* \"#utility.yul\":4431:4432   */\n  0x00\n    /* \"#utility.yul\":4424:4455   */\n  mstore\n    /* \"#utility.yul\":4478:4482   */\n  0x11\n    /* \"#utility.yul\":4475:4476   */\n  0x04\n    /* \"#utility.yul\":4468:4483   */\n  mstore\n    /* \"#utility.yul\":4506:4510   */\n  0x24\n    /* \"#utility.yul\":4503:4504   */\n  0x00\n    /* \"#utility.yul\":4496:4511   */\n  revert\n    /* \"#utility.yul\":4388:4521   */\ntag_76:\n    /* \"#utility.yul\":4305:4527   */\n  swap3\n  swap2\n  pop\n  pop\n  jump\t// out\n    /* \"#utility.yul\":4532:4709   */\ntag_34:\n    /* \"watt.sol\":398:1232  contract WattCoin is ERC20, ERC20Burnable {... */\n  dataSize(sub_0)\n  dup1\n  dataOffset(sub_0)\n  0x00\n  codecopy\n  0x00\n  return\nstop\n\nsub_0: assembly {\n        /* \"watt.sol\":398:1232  contract WattCoin is ERC20, ERC20Burnable {... */\n      mstore(0x40, 0x80)\n      callvalue\n      dup1\n      iszero\n      tag_1\n      jumpi\n      revert(0x00, 0x00)\n    tag_1:\n      pop\n      jumpi(tag_2, lt(calldatasize, 0x04))\n      shr(0xe0, calldataload(0x00))\n      dup1\n      0x70a08231\n      gt\n      tag_17\n      jumpi\n      dup1\n      0xa457c2d7\n      gt\n      tag_18\n      jumpi\n      dup1\n      0xa457c2d7\n      eq\n      tag_13\n      jumpi\n      dup1\n      0xa9059cbb\n      eq\n      tag_14\n      jumpi\n      dup1\n      0xcae9ca51\n      eq\n      tag_15\n      jumpi\n      dup1\n      0xdd62ed3e\n      eq\n      tag_16\n      jumpi\n      revert(0x00, 0x00)\n    tag_18:\n      dup1\n      0x70a08231\n      eq\n      tag_10\n      jumpi\n      dup1\n      0x79cc6790\n      eq\n      tag_11\n      jumpi\n      dup1\n      0x95d89b41\n      eq\n      tag_12\n      jumpi\n      revert(0x00, 0x00)\n    tag_17:\n      dup1\n      0x23b872dd\n      gt\n      tag_19\n      jumpi\n      dup1\n      0x23b872dd\n      eq\n      tag_6\n      jumpi\n      dup1\n      0x313ce567\n      eq\n      tag_7\n      jumpi\n      dup1\n      0x39509351\n      eq\n      tag_8\n      jumpi\n      dup1\n      0x42966c68\n      eq\n      tag_9\n      jumpi\n      revert(0x00, 0x00)\n    tag_19:\n      dup1\n      0x06fdde03\n      eq\n      tag_3\n      jumpi\n      dup1\n      0x095ea7b3\n      eq\n      tag_4\n      jumpi\n      dup1\n      0x18160ddd\n      eq\n      tag_5\n      jumpi\n    tag_2:\n      revert(0x00, 0x00)\n        /* \"@openzeppelin/contracts@4.9.3/token/ERC20/ERC20.sol\":2158:2256  function name() public view virtual override returns (string memory) {... */\n    tag_3:\n      tag_20\n      tag_21\n      jump\t// in\n    tag_20:\n      mload(0x40)\n      tag_22\n      swap2\n      swap1\n      tag_23\n      jump\t// in\n    tag_22:\n      mload(0x40)\n      dup1\n      swap2\n      sub\n      swap1\n      return\n        /* \"@openzeppelin/contracts@4.9.3/token/ERC20/ERC20.sol\":4444:4641  function approve(address spender, uint256 amount) public virtual override returns (bool) {... */\n    tag_4:\n      tag_24\n      tag_25\n      calldatasize\n      0x04\n      tag_26\n      jump\t// in\n    tag_25:\n      tag_27\n      jump\t// in\n    tag_24:\n      mload(0x40)\n        /* \"#utility.yul\":1085:1099   */\n      swap1\n      iszero\n        /* \"#utility.yul\":1078:1100   */\n      iszero\n        /* \"#utility.yul\":1060:1101   */\n      dup2\n      mstore\n        /* \"#utility.yul\":1048:1050   */\n      0x20\n        /* \"#utility.yul\":1033:1051   */\n      add\n        /* \"@openzeppelin/contracts@4.9.3/token/ERC20/ERC20.sol\":4444:4641  function approve(address spender, uint256 amount) public virtual override returns (bool) {... */\n      tag_22\n        /* \"#utility.yul\":920:1107   */\n      jump\n        /* \"@openzeppelin/contracts@4.9.3/token/ERC20/ERC20.sol\":3255:3361  function totalSupply() public view virtual override returns (uint256) {... */\n    tag_5:\n        /* \"@openzeppelin/contracts@4.9.3/token/ERC20/ERC20.sol\":3342:3354  _totalSupply */\n      sload(0x02)\n        /* \"@openzeppelin/contracts@4.9.3/token/ERC20/ERC20.sol\":3255:3361  function totalSupply() public view virtual override returns (uint256) {... */\n    tag_30:\n      mload(0x40)\n        /* \"#utility.yul\":1258:1283   */\n      swap1\n      dup2\n      mstore\n        /* \"#utility.yul\":1246:1248   */\n      0x20\n        /* \"#utility.yul\":1231:1249   */\n      add\n        /* \"@openzeppelin/contracts@4.9.3/token/ERC20/ERC20.sol\":3255:3361  function totalSupply() public view virtual override returns (uint256) {... */\n      tag_22\n        /* \"#utility.yul\":1112:1289   */\n      jump\n        /* \"@openzeppelin/contracts@4.9.3/token/ERC20/ERC20.sol\":5203:5459  function transferFrom(address from, address to, uint256 amount) public virtual override returns (bool) {... */\n    tag_6:\n      tag_24\n      tag_35\n      calldatasize\n      0x04\n      tag_36\n      jump\t// in\n    tag_35:\n      tag_37\n      jump\t// in\n        /* \"watt.sol\":745:845  function decimals() public view virtual override returns (uint8) {... */\n    tag_7:\n      mload(0x40)\n        /* \"watt.sol\":482:484  18 */\n      0x12\n        /* \"#utility.yul\":1815:1851   */\n      dup2\n      mstore\n        /* \"#utility.yul\":1803:1805   */\n      0x20\n        /* \"#utility.yul\":1788:1806   */\n      add\n        /* \"watt.sol\":745:845  function decimals() public view virtual override returns (uint8) {... */\n      tag_22\n        /* \"#utility.yul\":1673:1857   */\n      jump\n        /* \"@openzeppelin/contracts@4.9.3/token/ERC20/ERC20.sol\":5854:6088  function increaseAllowance(address spender, uint256 addedValue) public virtual returns (bool) {... */\n    tag_8:\n      tag_24\n      tag_44\n      calldatasize\n      0x04\n      tag_26\n      jump\t// in\n    tag_44:\n      tag_45\n      jump\t// in\n        /* \"@openzeppelin/contracts@4.9.3/token/ERC20/extensions/ERC20Burnable.sol\":578:667  function burn(uint256 amount) public virtual {... */\n    tag_9:\n      tag_47\n      tag_48\n      calldatasize\n      0x04\n      tag_49\n      jump\t// in\n    tag_48:\n      tag_50\n      jump\t// in\n    tag_47:\n      stop\n        /* \"@openzeppelin/contracts@4.9.3/token/ERC20/ERC20.sol\":3419:3544  function balanceOf(address account) public view virtual override returns (uint256) {... */\n    tag_10:\n      tag_30\n      tag_52\n      calldatasize\n      0x04\n      tag_53\n      jump\t// in\n    tag_52:\n      sub(shl(0xa0, 0x01), 0x01)\n        /* \"@openzeppelin/contracts@4.9.3/token/ERC20/ERC20.sol\":3519:3537  _balances[account] */\n      and\n        /* \"@openzeppelin/contracts@4.9.3/token/ERC20/ERC20.sol\":3493:3500  uint256 */\n      0x00\n        /* \"@openzeppelin/contracts@4.9.3/token/ERC20/ERC20.sol\":3519:3537  _balances[account] */\n      swap1\n      dup2\n      mstore\n      0x20\n      dup2\n      swap1\n      mstore\n      0x40\n      swap1\n      keccak256\n      sload\n      swap1\n        /* \"@openzeppelin/contracts@4.9.3/token/ERC20/ERC20.sol\":3419:3544  function balanceOf(address account) public view virtual override returns (uint256) {... */\n      jump\n        /* \"@openzeppelin/contracts@4.9.3/token/ERC20/extensions/ERC20Burnable.sol\":973:1134  function burnFrom(address account, uint256 amount) public virtual {... */\n    tag_11:\n      tag_47\n      tag_57\n      calldatasize\n      0x04\n      tag_26\n      jump\t// in\n    tag_57:\n      tag_58\n      jump\t// in\n        /* \"@openzeppelin/contracts@4.9.3/token/ERC20/ERC20.sol\":2369:2471  function symbol() public view virtual override returns (string memory) {... */\n    tag_12:\n      tag_20\n      tag_60\n      jump\t// in\n        /* \"@openzeppelin/contracts@4.9.3/token/ERC20/ERC20.sol\":6575:7002  function decreaseAllowance(address spender, uint256 subtractedValue) public virtual returns (bool) {... */\n    tag_13:\n      tag_24\n      tag_63\n      calldatasize\n      0x04\n      tag_26\n      jump\t// in\n    tag_63:\n      tag_64\n      jump\t// in\n        /* \"@openzeppelin/contracts@4.9.3/token/ERC20/ERC20.sol\":3740:3929  function transfer(address to, uint256 amount) public virtual override returns (bool) {... */\n    tag_14:\n      tag_24\n      tag_67\n      calldatasize\n      0x04\n      tag_26\n      jump\t// in\n    tag_67:\n      tag_68\n      jump\t// in\n        /* \"watt.sol\":853:1229  function approveAndCall(... */\n    tag_15:\n      tag_24\n      tag_71\n      calldatasize\n      0x04\n      tag_72\n      jump\t// in\n    tag_71:\n      tag_73\n      jump\t// in\n        /* \"@openzeppelin/contracts@4.9.3/token/ERC20/ERC20.sol\":3987:4136  function allowance(address owner, address spender) public view virtual override returns (uint256) {... */\n    tag_16:\n      tag_30\n      tag_76\n      calldatasize\n      0x04\n      tag_77\n      jump\t// in\n    tag_76:\n      tag_78\n      jump\t// in\n        /* \"@openzeppelin/contracts@4.9.3/token/ERC20/ERC20.sol\":2158:2256  function name() public view virtual override returns (string memory) {... */\n    tag_21:\n        /* \"@openzeppelin/contracts@4.9.3/token/ERC20/ERC20.sol\":2212:2225  string memory */\n      0x60\n        /* \"@openzeppelin/contracts@4.9.3/token/ERC20/ERC20.sol\":2244:2249  _name */\n      0x03\n        /* \"@openzeppelin/contracts@4.9.3/token/ERC20/ERC20.sol\":2237:2249  return _name */\n      dup1\n      sload\n      tag_81\n      swap1\n      tag_82\n      jump\t// in\n    tag_81:\n      dup1\n      0x1f\n      add\n      0x20\n      dup1\n      swap2\n      div\n      mul\n      0x20\n      add\n      mload(0x40)\n      swap1\n      dup2\n      add\n      0x40\n      mstore\n      dup1\n      swap3\n      swap2\n      swap1\n      dup2\n      dup2\n      mstore\n      0x20\n      add\n      dup3\n      dup1\n      sload\n      tag_83\n      swap1\n      tag_82\n      jump\t// in\n    tag_83:\n      dup1\n      iszero\n      tag_84\n      jumpi\n      dup1\n      0x1f\n      lt\n      tag_85\n      jumpi\n      0x0100\n      dup1\n      dup4\n      sload\n      div\n      mul\n      dup4\n      mstore\n      swap2\n      0x20\n      add\n      swap2\n      jump(tag_84)\n    tag_85:\n      dup3\n      add\n      swap2\n      swap1\n      0x00\n      mstore\n      keccak256(0x00, 0x20)\n      swap1\n    tag_86:\n      dup2\n      sload\n      dup2\n      mstore\n      swap1\n      0x01\n      add\n      swap1\n      0x20\n      add\n      dup1\n      dup4\n      gt\n      tag_86\n      jumpi\n      dup3\n      swap1\n      sub\n      0x1f\n      and\n      dup3\n      add\n      swap2\n    tag_84:\n      pop\n      pop\n      pop\n      pop\n      pop\n      swap1\n      pop\n        /* \"@openzeppelin/contracts@4.9.3/token/ERC20/ERC20.sol\":2158:2256  function name() public view virtual override returns (string memory) {... */\n      swap1\n      jump\t// out\n        /* \"@openzeppelin/contracts@4.9.3/token/ERC20/ERC20.sol\":4444:4641  function approve(address spender, uint256 amount) public virtual override returns (bool) {... */\n    tag_27:\n        /* \"@openzeppelin/contracts@4.9.3/token/ERC20/ERC20.sol\":4527:4531  bool */\n      0x00\n        /* \"@openzeppelin/contracts@4.9.3/utils/Context.sol\":719:729  msg.sender */\n      caller\n        /* \"@openzeppelin/contracts@4.9.3/token/ERC20/ERC20.sol\":4581:4613  _approve(owner, spender, amount) */\n      tag_90\n        /* \"@openzeppelin/contracts@4.9.3/utils/Context.sol\":719:729  msg.sender */\n      dup2\n        /* \"@openzeppelin/contracts@4.9.3/token/ERC20/ERC20.sol\":4597:4604  spender */\n      dup6\n        /* \"@openzeppelin/contracts@4.9.3/token/ERC20/ERC20.sol\":4606:4612  amount */\n      dup6\n        /* \"@openzeppelin/contracts@4.9.3/token/ERC20/ERC20.sol\":4581:4589  _approve */\n      tag_91\n        /* \"@openzeppelin/contracts@4.9.3/token/ERC20/ERC20.sol\":4581:4613  _approve(owner, spender, amount) */\n      jump\t// in\n    tag_90:\n        /* \"@openzeppelin/contracts@4.9.3/token/ERC20/ERC20.sol\":4630:4634  true */\n      0x01\n        /* \"@openzeppelin/contracts@4.9.3/token/ERC20/ERC20.sol\":4623:4634  return true */\n      swap2\n      pop\n      pop\n        /* \"@openzeppelin/contracts@4.9.3/token/ERC20/ERC20.sol\":4444:4641  function approve(address spender, uint256 amount) public virtual override returns (bool) {... */\n    tag_87:\n      swap3\n      swap2\n      pop\n      pop\n      jump\t// out\n        /* \"@openzeppelin/contracts@4.9.3/token/ERC20/ERC20.sol\":5203:5459  function transferFrom(address from, address to, uint256 amount) public virtual override returns (bool) {... */\n    tag_37:\n        /* \"@openzeppelin/contracts@4.9.3/token/ERC20/ERC20.sol\":5300:5304  bool */\n      0x00\n        /* \"@openzeppelin/contracts@4.9.3/utils/Context.sol\":719:729  msg.sender */\n      caller\n        /* \"@openzeppelin/contracts@4.9.3/token/ERC20/ERC20.sol\":5356:5394  _spendAllowance(from, spender, amount) */\n      tag_95\n        /* \"@openzeppelin/contracts@4.9.3/token/ERC20/ERC20.sol\":5372:5376  from */\n      dup6\n        /* \"@openzeppelin/contracts@4.9.3/utils/Context.sol\":719:729  msg.sender */\n      dup3\n        /* \"@openzeppelin/contracts@4.9.3/token/ERC20/ERC20.sol\":5387:5393  amount */\n      dup6\n        /* \"@openzeppelin/contracts@4.9.3/token/ERC20/ERC20.sol\":5356:5371  _spendAllowance */\n      tag_96\n        /* \"@openzeppelin/contracts@4.9.3/token/ERC20/ERC20.sol\":5356:5394  _spendAllowance(from, spender, amount) */\n      jump\t// in\n    tag_95:\n        /* \"@openzeppelin/contracts@4.9.3/token/ERC20/ERC20.sol\":5404:5431  _transfer(from, to, amount) */\n      tag_97\n        /* \"@openzeppelin/contracts@4.9.3/token/ERC20/ERC20.sol\":5414:5418  from */\n      dup6\n        /* \"@openzeppelin/contracts@4.9.3/token/ERC20/ERC20.sol\":5420:5422  to */\n      dup6\n        /* \"@openzeppelin/contracts@4.9.3/token/ERC20/ERC20.sol\":5424:5430  amount */\n      dup6\n        /* \"@openzeppelin/contracts@4.9.3/token/ERC20/ERC20.sol\":5404:5413  _transfer */\n      tag_98\n        /* \"@openzeppelin/contracts@4.9.3/token/ERC20/ERC20.sol\":5404:5431  _transfer(from, to, amount) */\n      jump\t// in\n    tag_97:\n      pop\n        /* \"@openzeppelin/contracts@4.9.3/token/ERC20/ERC20.sol\":5448:5452  true */\n      0x01\n      swap5\n        /* \"@openzeppelin/contracts@4.9.3/token/ERC20/ERC20.sol\":5203:5459  function transferFrom(address from, address to, uint256 amount) public virtual override returns (bool) {... */\n      swap4\n      pop\n      pop\n      pop\n      pop\n      jump\t// out\n        /* \"@openzeppelin/contracts@4.9.3/token/ERC20/ERC20.sol\":5854:6088  function increaseAllowance(address spender, uint256 addedValue) public virtual returns (bool) {... */\n    tag_45:\n        /* \"@openzeppelin/contracts@4.9.3/token/ERC20/ERC20.sol\":5942:5946  bool */\n      0x00\n        /* \"@openzeppelin/contracts@4.9.3/utils/Context.sol\":719:729  msg.sender */\n      caller\n        /* \"@openzeppelin/contracts@4.9.3/token/ERC20/ERC20.sol\":5996:6060  _approve(owner, spender, allowance(owner, spender) + addedValue) */\n      tag_90\n        /* \"@openzeppelin/contracts@4.9.3/utils/Context.sol\":719:729  msg.sender */\n      dup2\n        /* \"@openzeppelin/contracts@4.9.3/token/ERC20/ERC20.sol\":6012:6019  spender */\n      dup6\n        /* \"@openzeppelin/contracts@4.9.3/token/ERC20/ERC20.sol\":6049:6059  addedValue */\n      dup6\n        /* \"@openzeppelin/contracts@4.9.3/token/ERC20/ERC20.sol\":6021:6046  allowance(owner, spender) */\n      tag_103\n        /* \"@openzeppelin/contracts@4.9.3/utils/Context.sol\":719:729  msg.sender */\n      dup4\n        /* \"@openzeppelin/contracts@4.9.3/token/ERC20/ERC20.sol\":6012:6019  spender */\n      dup4\n        /* \"@openzeppelin/contracts@4.9.3/token/ERC20/ERC20.sol\":6021:6030  allowance */\n      tag_78\n        /* \"@openzeppelin/contracts@4.9.3/token/ERC20/ERC20.sol\":6021:6046  allowance(owner, spender) */\n      jump\t// in\n    tag_103:\n        /* \"@openzeppelin/contracts@4.9.3/token/ERC20/ERC20.sol\":6021:6059  allowance(owner, spender) + addedValue */\n      tag_104\n      swap2\n      swap1\n      tag_105\n      jump\t// in\n    tag_104:\n        /* \"@openzeppelin/contracts@4.9.3/token/ERC20/ERC20.sol\":5996:6004  _approve */\n      tag_91\n        /* \"@openzeppelin/contracts@4.9.3/token/ERC20/ERC20.sol\":5996:6060  _approve(owner, spender, allowance(owner, spender) + addedValue) */\n      jump\t// in\n        /* \"@openzeppelin/contracts@4.9.3/token/ERC20/extensions/ERC20Burnable.sol\":578:667  function burn(uint256 amount) public virtual {... */\n    tag_50:\n        /* \"@openzeppelin/contracts@4.9.3/token/ERC20/extensions/ERC20Burnable.sol\":633:660  _burn(_msgSender(), amount) */\n      tag_107\n        /* \"@openzeppelin/contracts@4.9.3/utils/Context.sol\":719:729  msg.sender */\n      caller\n        /* \"@openzeppelin/contracts@4.9.3/token/ERC20/extensions/ERC20Burnable.sol\":653:659  amount */\n      dup3\n        /* \"@openzeppelin/contracts@4.9.3/token/ERC20/extensions/ERC20Burnable.sol\":633:638  _burn */\n      tag_109\n        /* \"@openzeppelin/contracts@4.9.3/token/ERC20/extensions/ERC20Burnable.sol\":633:660  _burn(_msgSender(), amount) */\n      jump\t// in\n    tag_107:\n        /* \"@openzeppelin/contracts@4.9.3/token/ERC20/extensions/ERC20Burnable.sol\":578:667  function burn(uint256 amount) public virtual {... */\n      pop\n      jump\t// out\n        /* \"@openzeppelin/contracts@4.9.3/token/ERC20/extensions/ERC20Burnable.sol\":973:1134  function burnFrom(address account, uint256 amount) public virtual {... */\n    tag_58:\n        /* \"@openzeppelin/contracts@4.9.3/token/ERC20/extensions/ERC20Burnable.sol\":1049:1095  _spendAllowance(account, _msgSender(), amount) */\n      tag_112\n        /* \"@openzeppelin/contracts@4.9.3/token/ERC20/extensions/ERC20Burnable.sol\":1065:1072  account */\n      dup3\n        /* \"@openzeppelin/contracts@4.9.3/utils/Context.sol\":719:729  msg.sender */\n      caller\n        /* \"@openzeppelin/contracts@4.9.3/token/ERC20/extensions/ERC20Burnable.sol\":1088:1094  amount */\n      dup4\n        /* \"@openzeppelin/contracts@4.9.3/token/ERC20/extensions/ERC20Burnable.sol\":1049:1064  _spendAllowance */\n      tag_96\n        /* \"@openzeppelin/contracts@4.9.3/token/ERC20/extensions/ERC20Burnable.sol\":1049:1095  _spendAllowance(account, _msgSender(), amount) */\n      jump\t// in\n    tag_112:\n        /* \"@openzeppelin/contracts@4.9.3/token/ERC20/extensions/ERC20Burnable.sol\":1105:1127  _burn(account, amount) */\n      tag_114\n        /* \"@openzeppelin/contracts@4.9.3/token/ERC20/extensions/ERC20Burnable.sol\":1111:1118  account */\n      dup3\n        /* \"@openzeppelin/contracts@4.9.3/token/ERC20/extensions/ERC20Burnable.sol\":1120:1126  amount */\n      dup3\n        /* \"@openzeppelin/contracts@4.9.3/token/ERC20/extensions/ERC20Burnable.sol\":1105:1110  _burn */\n      tag_109\n        /* \"@openzeppelin/contracts@4.9.3/token/ERC20/extensions/ERC20Burnable.sol\":1105:1127  _burn(account, amount) */\n      jump\t// in\n    tag_114:\n        /* \"@openzeppelin/contracts@4.9.3/token/ERC20/extensions/ERC20Burnable.sol\":973:1134  function burnFrom(address account, uint256 amount) public virtual {... */\n      pop\n      pop\n      jump\t// out\n        /* \"@openzeppelin/contracts@4.9.3/token/ERC20/ERC20.sol\":2369:2471  function symbol() public view virtual override returns (string memory) {... */\n    tag_60:\n        /* \"@openzeppelin/contracts@4.9.3/token/ERC20/ERC20.sol\":2425:2438  string memory */\n      0x60\n        /* \"@openzeppelin/contracts@4.9.3/token/ERC20/ERC20.sol\":2457:2464  _symbol */\n      0x04\n        /* \"@openzeppelin/contracts@4.9.3/token/ERC20/ERC20.sol\":2450:2464  return _symbol */\n      dup1\n      sload\n      tag_81\n      swap1\n      tag_82\n      jump\t// in\n        /* \"@openzeppelin/contracts@4.9.3/token/ERC20/ERC20.sol\":6575:7002  function decreaseAllowance(address spender, uint256 subtractedValue) public virtual returns (bool) {... */\n    tag_64:\n        /* \"@openzeppelin/contracts@4.9.3/token/ERC20/ERC20.sol\":6668:6672  bool */\n      0x00\n        /* \"@openzeppelin/contracts@4.9.3/utils/Context.sol\":719:729  msg.sender */\n      caller\n        /* \"@openzeppelin/contracts@4.9.3/token/ERC20/ERC20.sol\":6668:6672  bool */\n      dup2\n        /* \"@openzeppelin/contracts@4.9.3/token/ERC20/ERC20.sol\":6749:6774  allowance(owner, spender) */\n      tag_123\n        /* \"@openzeppelin/contracts@4.9.3/utils/Context.sol\":719:729  msg.sender */\n      dup3\n        /* \"@openzeppelin/contracts@4.9.3/token/ERC20/ERC20.sol\":6766:6773  spender */\n      dup7\n        /* \"@openzeppelin/contracts@4.9.3/token/ERC20/ERC20.sol\":6749:6758  allowance */\n      tag_78\n        /* \"@openzeppelin/contracts@4.9.3/token/ERC20/ERC20.sol\":6749:6774  allowance(owner, spender) */\n      jump\t// in\n    tag_123:\n        /* \"@openzeppelin/contracts@4.9.3/token/ERC20/ERC20.sol\":6722:6774  uint256 currentAllowance = allowance(owner, spender) */\n      swap1\n      pop\n        /* \"@openzeppelin/contracts@4.9.3/token/ERC20/ERC20.sol\":6812:6827  subtractedValue */\n      dup4\n        /* \"@openzeppelin/contracts@4.9.3/token/ERC20/ERC20.sol\":6792:6808  currentAllowance */\n      dup2\n        /* \"@openzeppelin/contracts@4.9.3/token/ERC20/ERC20.sol\":6792:6827  currentAllowance >= subtractedValue */\n      lt\n      iszero\n        /* \"@openzeppelin/contracts@4.9.3/token/ERC20/ERC20.sol\":6784:6869  require(currentAllowance >= subtractedValue, \"ERC20: decreased allowance below zero\") */\n      tag_124\n      jumpi\n      mload(0x40)\n      shl(0xe5, 0x461bcd)\n      dup2\n      mstore\n        /* \"#utility.yul\":4142:4144   */\n      0x20\n        /* \"@openzeppelin/contracts@4.9.3/token/ERC20/ERC20.sol\":6784:6869  require(currentAllowance >= subtractedValue, \"ERC20: decreased allowance below zero\") */\n      0x04\n      dup3\n      add\n        /* \"#utility.yul\":4124:4145   */\n      mstore\n        /* \"#utility.yul\":4181:4183   */\n      0x25\n        /* \"#utility.yul\":4161:4179   */\n      0x24\n      dup3\n      add\n        /* \"#utility.yul\":4154:4184   */\n      mstore\n        /* \"#utility.yul\":4220:4254   */\n      0x45524332303a2064656372656173656420616c6c6f77616e63652062656c6f77\n        /* \"#utility.yul\":4200:4218   */\n      0x44\n      dup3\n      add\n        /* \"#utility.yul\":4193:4255   */\n      mstore\n      shl(0xd8, 0x207a65726f)\n        /* \"#utility.yul\":4271:4289   */\n      0x64\n      dup3\n      add\n        /* \"#utility.yul\":4264:4299   */\n      mstore\n        /* \"#utility.yul\":4316:4335   */\n      0x84\n      add\n        /* \"@openzeppelin/contracts@4.9.3/token/ERC20/ERC20.sol\":6784:6869  require(currentAllowance >= subtractedValue, \"ERC20: decreased allowance below zero\") */\n    tag_125:\n      mload(0x40)\n      dup1\n      swap2\n      sub\n      swap1\n      revert\n    tag_124:\n        /* \"@openzeppelin/contracts@4.9.3/token/ERC20/ERC20.sol\":6903:6963  _approve(owner, spender, currentAllowance - subtractedValue) */\n      tag_97\n        /* \"@openzeppelin/contracts@4.9.3/token/ERC20/ERC20.sol\":6912:6917  owner */\n      dup3\n        /* \"@openzeppelin/contracts@4.9.3/token/ERC20/ERC20.sol\":6919:6926  spender */\n      dup7\n        /* \"@openzeppelin/contracts@4.9.3/token/ERC20/ERC20.sol\":6947:6962  subtractedValue */\n      dup7\n        /* \"@openzeppelin/contracts@4.9.3/token/ERC20/ERC20.sol\":6928:6944  currentAllowance */\n      dup5\n        /* \"@openzeppelin/contracts@4.9.3/token/ERC20/ERC20.sol\":6928:6962  currentAllowance - subtractedValue */\n      sub\n        /* \"@openzeppelin/contracts@4.9.3/token/ERC20/ERC20.sol\":6903:6911  _approve */\n      tag_91\n        /* \"@openzeppelin/contracts@4.9.3/token/ERC20/ERC20.sol\":6903:6963  _approve(owner, spender, currentAllowance - subtractedValue) */\n      jump\t// in\n        /* \"@openzeppelin/contracts@4.9.3/token/ERC20/ERC20.sol\":3740:3929  function transfer(address to, uint256 amount) public virtual override returns (bool) {... */\n    tag_68:\n        /* \"@openzeppelin/contracts@4.9.3/token/ERC20/ERC20.sol\":3819:3823  bool */\n      0x00\n        /* \"@openzeppelin/contracts@4.9.3/utils/Context.sol\":719:729  msg.sender */\n      caller\n        /* \"@openzeppelin/contracts@4.9.3/token/ERC20/ERC20.sol\":3873:3901  _transfer(owner, to, amount) */\n      tag_90\n        /* \"@openzeppelin/contracts@4.9.3/utils/Context.sol\":719:729  msg.sender */\n      dup2\n        /* \"@openzeppelin/contracts@4.9.3/token/ERC20/ERC20.sol\":3890:3892  to */\n      dup6\n        /* \"@openzeppelin/contracts@4.9.3/token/ERC20/ERC20.sol\":3894:3900  amount */\n      dup6\n        /* \"@openzeppelin/contracts@4.9.3/token/ERC20/ERC20.sol\":3873:3882  _transfer */\n      tag_98\n        /* \"@openzeppelin/contracts@4.9.3/token/ERC20/ERC20.sol\":3873:3901  _transfer(owner, to, amount) */\n      jump\t// in\n        /* \"watt.sol\":853:1229  function approveAndCall(... */\n    tag_73:\n        /* \"watt.sol\":988:1000  bool success */\n      0x00\n        /* \"watt.sol\":1013:1038  approve(_spender, _value) */\n      tag_132\n        /* \"watt.sol\":1021:1029  _spender */\n      dup6\n        /* \"watt.sol\":1031:1037  _value */\n      dup6\n        /* \"watt.sol\":1013:1020  approve */\n      tag_27\n        /* \"watt.sol\":1013:1038  approve(_spender, _value) */\n      jump\t// in\n    tag_132:\n      pop\n        /* \"watt.sol\":1049:1199  TokenRecipient(_spender).receiveApproval(... */\n      mload(0x40)\n      shl(0xe0, 0x8f4ffcb1)\n      dup2\n      mstore\n      sub(shl(0xa0, 0x01), 0x01)\n        /* \"watt.sol\":1049:1089  TokenRecipient(_spender).receiveApproval */\n      dup7\n      and\n      swap1\n      0x8f4ffcb1\n      swap1\n        /* \"watt.sol\":1049:1199  TokenRecipient(_spender).receiveApproval(... */\n      tag_133\n      swap1\n        /* \"watt.sol\":1104:1114  msg.sender */\n      caller\n      swap1\n        /* \"watt.sol\":1129:1135  _value */\n      dup9\n      swap1\n        /* \"watt.sol\":1158:1162  this */\n      address\n      swap1\n        /* \"watt.sol\":1178:1188  _extraData */\n      dup10\n      swap1\n      dup10\n      swap1\n        /* \"watt.sol\":1049:1199  TokenRecipient(_spender).receiveApproval(... */\n      0x04\n      add\n      tag_134\n      jump\t// in\n    tag_133:\n      0x00\n      mload(0x40)\n      dup1\n      dup4\n      sub\n      dup2\n      0x00\n      dup8\n      dup1\n      extcodesize\n      iszero\n      dup1\n      iszero\n      tag_135\n      jumpi\n      revert(0x00, 0x00)\n    tag_135:\n      pop\n      gas\n      call\n      iszero\n      dup1\n      iszero\n      tag_137\n      jumpi\n      returndatacopy(0x00, 0x00, returndatasize)\n      revert(0x00, returndatasize)\n    tag_137:\n      pop\n        /* \"watt.sol\":1217:1221  true */\n      0x01\n      swap9\n        /* \"watt.sol\":853:1229  function approveAndCall(... */\n      swap8\n      pop\n      pop\n      pop\n      pop\n      pop\n      pop\n      pop\n      pop\n      jump\t// out\n        /* \"@openzeppelin/contracts@4.9.3/token/ERC20/ERC20.sol\":3987:4136  function allowance(address owner, address spender) public view virtual override returns (uint256) {... */\n    tag_78:\n      sub(shl(0xa0, 0x01), 0x01)\n        /* \"@openzeppelin/contracts@4.9.3/token/ERC20/ERC20.sol\":4102:4120  _allowances[owner] */\n      swap2\n      dup3\n      and\n        /* \"@openzeppelin/contracts@4.9.3/token/ERC20/ERC20.sol\":4076:4083  uint256 */\n      0x00\n        /* \"@openzeppelin/contracts@4.9.3/token/ERC20/ERC20.sol\":4102:4120  _allowances[owner] */\n      swap1\n      dup2\n      mstore\n        /* \"@openzeppelin/contracts@4.9.3/token/ERC20/ERC20.sol\":4102:4113  _allowances */\n      0x01\n        /* \"@openzeppelin/contracts@4.9.3/token/ERC20/ERC20.sol\":4102:4120  _allowances[owner] */\n      0x20\n      swap1\n      dup2\n      mstore\n      0x40\n      dup1\n      dup4\n      keccak256\n        /* \"@openzeppelin/contracts@4.9.3/token/ERC20/ERC20.sol\":4102:4129  _allowances[owner][spender] */\n      swap4\n      swap1\n      swap5\n      and\n      dup3\n      mstore\n      swap2\n      swap1\n      swap2\n      mstore\n      keccak256\n      sload\n      swap1\n        /* \"@openzeppelin/contracts@4.9.3/token/ERC20/ERC20.sol\":3987:4136  function allowance(address owner, address spender) public view virtual override returns (uint256) {... */\n      jump\t// out\n        /* \"@openzeppelin/contracts@4.9.3/token/ERC20/ERC20.sol\":10457:10797  function _approve(address owner, address spender, uint256 amount) internal virtual {... */\n    tag_91:\n      sub(shl(0xa0, 0x01), 0x01)\n        /* \"@openzeppelin/contracts@4.9.3/token/ERC20/ERC20.sol\":10558:10577  owner != address(0) */\n      dup4\n      and\n        /* \"@openzeppelin/contracts@4.9.3/token/ERC20/ERC20.sol\":10550:10618  require(owner != address(0), \"ERC20: approve from the zero address\") */\n      tag_141\n      jumpi\n      mload(0x40)\n      shl(0xe5, 0x461bcd)\n      dup2\n      mstore\n        /* \"#utility.yul\":5211:5213   */\n      0x20\n        /* \"@openzeppelin/contracts@4.9.3/token/ERC20/ERC20.sol\":10550:10618  require(owner != address(0), \"ERC20: approve from the zero address\") */\n      0x04\n      dup3\n      add\n        /* \"#utility.yul\":5193:5214   */\n      mstore\n        /* \"#utility.yul\":5250:5252   */\n      0x24\n        /* \"#utility.yul\":5230:5248   */\n      dup1\n      dup3\n      add\n        /* \"#utility.yul\":5223:5253   */\n      mstore\n        /* \"#utility.yul\":5289:5323   */\n      0x45524332303a20617070726f76652066726f6d20746865207a65726f20616464\n        /* \"#utility.yul\":5269:5287   */\n      0x44\n      dup3\n      add\n        /* \"#utility.yul\":5262:5324   */\n      mstore\n      shl(0xe0, 0x72657373)\n        /* \"#utility.yul\":5340:5358   */\n      0x64\n      dup3\n      add\n        /* \"#utility.yul\":5333:5367   */\n      mstore\n        /* \"#utility.yul\":5384:5403   */\n      0x84\n      add\n        /* \"@openzeppelin/contracts@4.9.3/token/ERC20/ERC20.sol\":10550:10618  require(owner != address(0), \"ERC20: approve from the zero address\") */\n      tag_125\n        /* \"#utility.yul\":5009:5409   */\n      jump\n        /* \"@openzeppelin/contracts@4.9.3/token/ERC20/ERC20.sol\":10550:10618  require(owner != address(0), \"ERC20: approve from the zero address\") */\n    tag_141:\n      sub(shl(0xa0, 0x01), 0x01)\n        /* \"@openzeppelin/contracts@4.9.3/token/ERC20/ERC20.sol\":10636:10657  spender != address(0) */\n      dup3\n      and\n        /* \"@openzeppelin/contracts@4.9.3/token/ERC20/ERC20.sol\":10628:10696  require(spender != address(0), \"ERC20: approve to the zero address\") */\n      tag_144\n      jumpi\n      mload(0x40)\n      shl(0xe5, 0x461bcd)\n      dup2\n      mstore\n        /* \"#utility.yul\":5616:5618   */\n      0x20\n        /* \"@openzeppelin/contracts@4.9.3/token/ERC20/ERC20.sol\":10628:10696  require(spender != address(0), \"ERC20: approve to the zero address\") */\n      0x04\n      dup3\n      add\n        /* \"#utility.yul\":5598:5619   */\n      mstore\n        /* \"#utility.yul\":5655:5657   */\n      0x22\n        /* \"#utility.yul\":5635:5653   */\n      0x24\n      dup3\n      add\n        /* \"#utility.yul\":5628:5658   */\n      mstore\n        /* \"#utility.yul\":5694:5728   */\n      0x45524332303a20617070726f766520746f20746865207a65726f206164647265\n        /* \"#utility.yul\":5674:5692   */\n      0x44\n      dup3\n      add\n        /* \"#utility.yul\":5667:5729   */\n      mstore\n      shl(0xf0, 0x7373)\n        /* \"#utility.yul\":5745:5763   */\n      0x64\n      dup3\n      add\n        /* \"#utility.yul\":5738:5770   */\n      mstore\n        /* \"#utility.yul\":5787:5806   */\n      0x84\n      add\n        /* \"@openzeppelin/contracts@4.9.3/token/ERC20/ERC20.sol\":10628:10696  require(spender != address(0), \"ERC20: approve to the zero address\") */\n      tag_125\n        /* \"#utility.yul\":5414:5812   */\n      jump\n        /* \"@openzeppelin/contracts@4.9.3/token/ERC20/ERC20.sol\":10628:10696  require(spender != address(0), \"ERC20: approve to the zero address\") */\n    tag_144:\n      sub(shl(0xa0, 0x01), 0x01)\n        /* \"@openzeppelin/contracts@4.9.3/token/ERC20/ERC20.sol\":10707:10725  _allowances[owner] */\n      dup4\n      dup2\n      and\n      0x00\n      dup2\n      dup2\n      mstore\n        /* \"@openzeppelin/contracts@4.9.3/token/ERC20/ERC20.sol\":10707:10718  _allowances */\n      0x01\n        /* \"@openzeppelin/contracts@4.9.3/token/ERC20/ERC20.sol\":10707:10725  _allowances[owner] */\n      0x20\n      swap1\n      dup2\n      mstore\n      0x40\n      dup1\n      dup4\n      keccak256\n        /* \"@openzeppelin/contracts@4.9.3/token/ERC20/ERC20.sol\":10707:10734  _allowances[owner][spender] */\n      swap5\n      dup8\n      and\n      dup1\n      dup5\n      mstore\n      swap5\n      dup3\n      mstore\n      swap2\n      dup3\n      swap1\n      keccak256\n        /* \"@openzeppelin/contracts@4.9.3/token/ERC20/ERC20.sol\":10707:10743  _allowances[owner][spender] = amount */\n      dup6\n      swap1\n      sstore\n        /* \"@openzeppelin/contracts@4.9.3/token/ERC20/ERC20.sol\":10758:10790  Approval(owner, spender, amount) */\n      swap1\n      mload\n        /* \"#utility.yul\":1258:1283   */\n      dup5\n      dup2\n      mstore\n        /* \"@openzeppelin/contracts@4.9.3/token/ERC20/ERC20.sol\":10758:10790  Approval(owner, spender, amount) */\n      0x8c5be1e5ebec7d5bd14f71427d1e84f3dd0314c0f7b2291e5b200ac8c7c3b925\n      swap2\n        /* \"#utility.yul\":1231:1249   */\n      add\n        /* \"@openzeppelin/contracts@4.9.3/token/ERC20/ERC20.sol\":10758:10790  Approval(owner, spender, amount) */\n    tag_147:\n      mload(0x40)\n      dup1\n      swap2\n      sub\n      swap1\n      log3\n        /* \"@openzeppelin/contracts@4.9.3/token/ERC20/ERC20.sol\":10457:10797  function _approve(address owner, address spender, uint256 amount) internal virtual {... */\n      pop\n      pop\n      pop\n      jump\t// out\n        /* \"@openzeppelin/contracts@4.9.3/token/ERC20/ERC20.sol\":11078:11489  function _spendAllowance(address owner, address spender, uint256 amount) internal virtual {... */\n    tag_96:\n        /* \"@openzeppelin/contracts@4.9.3/token/ERC20/ERC20.sol\":11178:11202  uint256 currentAllowance */\n      0x00\n        /* \"@openzeppelin/contracts@4.9.3/token/ERC20/ERC20.sol\":11205:11230  allowance(owner, spender) */\n      tag_149\n        /* \"@openzeppelin/contracts@4.9.3/token/ERC20/ERC20.sol\":11215:11220  owner */\n      dup5\n        /* \"@openzeppelin/contracts@4.9.3/token/ERC20/ERC20.sol\":11222:11229  spender */\n      dup5\n        /* \"@openzeppelin/contracts@4.9.3/token/ERC20/ERC20.sol\":11205:11214  allowance */\n      tag_78\n        /* \"@openzeppelin/contracts@4.9.3/token/ERC20/ERC20.sol\":11205:11230  allowance(owner, spender) */\n      jump\t// in\n    tag_149:\n        /* \"@openzeppelin/contracts@4.9.3/token/ERC20/ERC20.sol\":11178:11230  uint256 currentAllowance = allowance(owner, spender) */\n      swap1\n      pop\n      not(0x00)\n        /* \"@openzeppelin/contracts@4.9.3/token/ERC20/ERC20.sol\":11244:11260  currentAllowance */\n      dup2\n        /* \"@openzeppelin/contracts@4.9.3/token/ERC20/ERC20.sol\":11244:11281  currentAllowance != type(uint256).max */\n      eq\n        /* \"@openzeppelin/contracts@4.9.3/token/ERC20/ERC20.sol\":11240:11483  if (currentAllowance != type(uint256).max) {... */\n      tag_154\n      jumpi\n        /* \"@openzeppelin/contracts@4.9.3/token/ERC20/ERC20.sol\":11325:11331  amount */\n      dup2\n        /* \"@openzeppelin/contracts@4.9.3/token/ERC20/ERC20.sol\":11305:11321  currentAllowance */\n      dup2\n        /* \"@openzeppelin/contracts@4.9.3/token/ERC20/ERC20.sol\":11305:11331  currentAllowance >= amount */\n      lt\n      iszero\n        /* \"@openzeppelin/contracts@4.9.3/token/ERC20/ERC20.sol\":11297:11365  require(currentAllowance >= amount, \"ERC20: insufficient allowance\") */\n      tag_151\n      jumpi\n      mload(0x40)\n      shl(0xe5, 0x461bcd)\n      dup2\n      mstore\n        /* \"#utility.yul\":6019:6021   */\n      0x20\n        /* \"@openzeppelin/contracts@4.9.3/token/ERC20/ERC20.sol\":11297:11365  require(currentAllowance >= amount, \"ERC20: insufficient allowance\") */\n      0x04\n      dup3\n      add\n        /* \"#utility.yul\":6001:6022   */\n      mstore\n        /* \"#utility.yul\":6058:6060   */\n      0x1d\n        /* \"#utility.yul\":6038:6056   */\n      0x24\n      dup3\n      add\n        /* \"#utility.yul\":6031:6061   */\n      mstore\n        /* \"#utility.yul\":6097:6128   */\n      0x45524332303a20696e73756666696369656e7420616c6c6f77616e6365000000\n        /* \"#utility.yul\":6077:6095   */\n      0x44\n      dup3\n      add\n        /* \"#utility.yul\":6070:6129   */\n      mstore\n        /* \"#utility.yul\":6146:6164   */\n      0x64\n      add\n        /* \"@openzeppelin/contracts@4.9.3/token/ERC20/ERC20.sol\":11297:11365  require(currentAllowance >= amount, \"ERC20: insufficient allowance\") */\n      tag_125\n        /* \"#utility.yul\":5817:6170   */\n      jump\n        /* \"@openzeppelin/contracts@4.9.3/token/ERC20/ERC20.sol\":11297:11365  require(currentAllowance >= amount, \"ERC20: insufficient allowance\") */\n    tag_151:\n        /* \"@openzeppelin/contracts@4.9.3/token/ERC20/ERC20.sol\":11407:11458  _approve(owner, spender, currentAllowance - amount) */\n      tag_154\n        /* \"@openzeppelin/contracts@4.9.3/token/ERC20/ERC20.sol\":11416:11421  owner */\n      dup5\n        /* \"@openzeppelin/contracts@4.9.3/token/ERC20/ERC20.sol\":11423:11430  spender */\n      dup5\n        /* \"@openzeppelin/contracts@4.9.3/token/ERC20/ERC20.sol\":11451:11457  amount */\n      dup5\n        /* \"@openzeppelin/contracts@4.9.3/token/ERC20/ERC20.sol\":11432:11448  currentAllowance */\n      dup5\n        /* \"@openzeppelin/contracts@4.9.3/token/ERC20/ERC20.sol\":11432:11457  currentAllowance - amount */\n      sub\n        /* \"@openzeppelin/contracts@4.9.3/token/ERC20/ERC20.sol\":11407:11415  _approve */\n      tag_91\n        /* \"@openzeppelin/contracts@4.9.3/token/ERC20/ERC20.sol\":11407:11458  _approve(owner, spender, currentAllowance - amount) */\n      jump\t// in\n    tag_154:\n        /* \"@openzeppelin/contracts@4.9.3/token/ERC20/ERC20.sol\":11168:11489  {... */\n      pop\n        /* \"@openzeppelin/contracts@4.9.3/token/ERC20/ERC20.sol\":11078:11489  function _spendAllowance(address owner, address spender, uint256 amount) internal virtual {... */\n      pop\n      pop\n      pop\n      jump\t// out\n        /* \"@openzeppelin/contracts@4.9.3/token/ERC20/ERC20.sol\":7456:8244  function _transfer(address from, address to, uint256 amount) internal virtual {... */\n    tag_98:\n      sub(shl(0xa0, 0x01), 0x01)\n        /* \"@openzeppelin/contracts@4.9.3/token/ERC20/ERC20.sol\":7552:7570  from != address(0) */\n      dup4\n      and\n        /* \"@openzeppelin/contracts@4.9.3/token/ERC20/ERC20.sol\":7544:7612  require(from != address(0), \"ERC20: transfer from the zero address\") */\n      tag_156\n      jumpi\n      mload(0x40)\n      shl(0xe5, 0x461bcd)\n      dup2\n      mstore\n        /* \"#utility.yul\":6377:6379   */\n      0x20\n        /* \"@openzeppelin/contracts@4.9.3/token/ERC20/ERC20.sol\":7544:7612  require(from != address(0), \"ERC20: transfer from the zero address\") */\n      0x04\n      dup3\n      add\n        /* \"#utility.yul\":6359:6380   */\n      mstore\n        /* \"#utility.yul\":6416:6418   */\n      0x25\n        /* \"#utility.yul\":6396:6414   */\n      0x24\n      dup3\n      add\n        /* \"#utility.yul\":6389:6419   */\n      mstore\n        /* \"#utility.yul\":6455:6489   */\n      0x45524332303a207472616e736665722066726f6d20746865207a65726f206164\n        /* \"#utility.yul\":6435:6453   */\n      0x44\n      dup3\n      add\n        /* \"#utility.yul\":6428:6490   */\n      mstore\n      shl(0xd8, 0x6472657373)\n        /* \"#utility.yul\":6506:6524   */\n      0x64\n      dup3\n      add\n        /* \"#utility.yul\":6499:6534   */\n      mstore\n        /* \"#utility.yul\":6551:6570   */\n      0x84\n      add\n        /* \"@openzeppelin/contracts@4.9.3/token/ERC20/ERC20.sol\":7544:7612  require(from != address(0), \"ERC20: transfer from the zero address\") */\n      tag_125\n        /* \"#utility.yul\":6175:6576   */\n      jump\n        /* \"@openzeppelin/contracts@4.9.3/token/ERC20/ERC20.sol\":7544:7612  require(from != address(0), \"ERC20: transfer from the zero address\") */\n    tag_156:\n      sub(shl(0xa0, 0x01), 0x01)\n        /* \"@openzeppelin/contracts@4.9.3/token/ERC20/ERC20.sol\":7630:7646  to != address(0) */\n      dup3\n      and\n        /* \"@openzeppelin/contracts@4.9.3/token/ERC20/ERC20.sol\":7622:7686  require(to != address(0), \"ERC20: transfer to the zero address\") */\n      tag_159\n      jumpi\n      mload(0x40)\n      shl(0xe5, 0x461bcd)\n      dup2\n      mstore\n        /* \"#utility.yul\":6783:6785   */\n      0x20\n        /* \"@openzeppelin/contracts@4.9.3/token/ERC20/ERC20.sol\":7622:7686  require(to != address(0), \"ERC20: transfer to the zero address\") */\n      0x04\n      dup3\n      add\n        /* \"#utility.yul\":6765:6786   */\n      mstore\n        /* \"#utility.yul\":6822:6824   */\n      0x23\n        /* \"#utility.yul\":6802:6820   */\n      0x24\n      dup3\n      add\n        /* \"#utility.yul\":6795:6825   */\n      mstore\n        /* \"#utility.yul\":6861:6895   */\n      0x45524332303a207472616e7366657220746f20746865207a65726f2061646472\n        /* \"#utility.yul\":6841:6859   */\n      0x44\n      dup3\n      add\n        /* \"#utility.yul\":6834:6896   */\n      mstore\n      shl(0xe8, 0x657373)\n        /* \"#utility.yul\":6912:6930   */\n      0x64\n      dup3\n      add\n        /* \"#utility.yul\":6905:6938   */\n      mstore\n        /* \"#utility.yul\":6955:6974   */\n      0x84\n      add\n        /* \"@openzeppelin/contracts@4.9.3/token/ERC20/ERC20.sol\":7622:7686  require(to != address(0), \"ERC20: transfer to the zero address\") */\n      tag_125\n        /* \"#utility.yul\":6581:6980   */\n      jump\n        /* \"@openzeppelin/contracts@4.9.3/token/ERC20/ERC20.sol\":7622:7686  require(to != address(0), \"ERC20: transfer to the zero address\") */\n    tag_159:\n      sub(shl(0xa0, 0x01), 0x01)\n        /* \"@openzeppelin/contracts@4.9.3/token/ERC20/ERC20.sol\":7768:7783  _balances[from] */\n      dup4\n      and\n        /* \"@openzeppelin/contracts@4.9.3/token/ERC20/ERC20.sol\":7746:7765  uint256 fromBalance */\n      0x00\n        /* \"@openzeppelin/contracts@4.9.3/token/ERC20/ERC20.sol\":7768:7783  _balances[from] */\n      swap1\n      dup2\n      mstore\n      0x20\n      dup2\n      swap1\n      mstore\n      0x40\n      swap1\n      keccak256\n      sload\n        /* \"@openzeppelin/contracts@4.9.3/token/ERC20/ERC20.sol\":7801:7822  fromBalance >= amount */\n      dup2\n      dup2\n      lt\n      iszero\n        /* \"@openzeppelin/contracts@4.9.3/token/ERC20/ERC20.sol\":7793:7865  require(fromBalance >= amount, \"ERC20: transfer amount exceeds balance\") */\n      tag_164\n      jumpi\n      mload(0x40)\n      shl(0xe5, 0x461bcd)\n      dup2\n      mstore\n        /* \"#utility.yul\":7187:7189   */\n      0x20\n        /* \"@openzeppelin/contracts@4.9.3/token/ERC20/ERC20.sol\":7793:7865  require(fromBalance >= amount, \"ERC20: transfer amount exceeds balance\") */\n      0x04\n      dup3\n      add\n        /* \"#utility.yul\":7169:7190   */\n      mstore\n        /* \"#utility.yul\":7226:7228   */\n      0x26\n        /* \"#utility.yul\":7206:7224   */\n      0x24\n      dup3\n      add\n        /* \"#utility.yul\":7199:7229   */\n      mstore\n        /* \"#utility.yul\":7265:7299   */\n      0x45524332303a207472616e7366657220616d6f756e7420657863656564732062\n        /* \"#utility.yul\":7245:7263   */\n      0x44\n      dup3\n      add\n        /* \"#utility.yul\":7238:7300   */\n      mstore\n      shl(0xd0, 0x616c616e6365)\n        /* \"#utility.yul\":7316:7334   */\n      0x64\n      dup3\n      add\n        /* \"#utility.yul\":7309:7345   */\n      mstore\n        /* \"#utility.yul\":7362:7381   */\n      0x84\n      add\n        /* \"@openzeppelin/contracts@4.9.3/token/ERC20/ERC20.sol\":7793:7865  require(fromBalance >= amount, \"ERC20: transfer amount exceeds balance\") */\n      tag_125\n        /* \"#utility.yul\":6985:7387   */\n      jump\n        /* \"@openzeppelin/contracts@4.9.3/token/ERC20/ERC20.sol\":7793:7865  require(fromBalance >= amount, \"ERC20: transfer amount exceeds balance\") */\n    tag_164:\n      sub(shl(0xa0, 0x01), 0x01)\n        /* \"@openzeppelin/contracts@4.9.3/token/ERC20/ERC20.sol\":7899:7914  _balances[from] */\n      dup5\n      dup2\n      and\n        /* \"@openzeppelin/contracts@4.9.3/token/ERC20/ERC20.sol\":7899:7908  _balances */\n      0x00\n        /* \"@openzeppelin/contracts@4.9.3/token/ERC20/ERC20.sol\":7899:7914  _balances[from] */\n      dup2\n      dup2\n      mstore\n      0x20\n      dup2\n      dup2\n      mstore\n      0x40\n      dup1\n      dup4\n      keccak256\n        /* \"@openzeppelin/contracts@4.9.3/token/ERC20/ERC20.sol\":7917:7937  fromBalance - amount */\n      dup8\n      dup8\n      sub\n        /* \"@openzeppelin/contracts@4.9.3/token/ERC20/ERC20.sol\":7899:7937  _balances[from] = fromBalance - amount */\n      swap1\n      sstore\n        /* \"@openzeppelin/contracts@4.9.3/token/ERC20/ERC20.sol\":8114:8127  _balances[to] */\n      swap4\n      dup8\n      and\n      dup1\n      dup4\n      mstore\n      swap2\n      dup5\n      swap1\n      keccak256\n        /* \"@openzeppelin/contracts@4.9.3/token/ERC20/ERC20.sol\":8114:8137  _balances[to] += amount */\n      dup1\n      sload\n      dup8\n      add\n      swap1\n      sstore\n        /* \"@openzeppelin/contracts@4.9.3/token/ERC20/ERC20.sol\":8163:8189  Transfer(from, to, amount) */\n      swap3\n      mload\n        /* \"#utility.yul\":1258:1283   */\n      dup6\n      dup2\n      mstore\n        /* \"@openzeppelin/contracts@4.9.3/token/ERC20/ERC20.sol\":8114:8127  _balances[to] */\n      swap1\n      swap3\n        /* \"@openzeppelin/contracts@4.9.3/token/ERC20/ERC20.sol\":8163:8189  Transfer(from, to, amount) */\n      0xddf252ad1be2c89b69c2b068fc378daa952ba7f163c4a11628f55a4df523b3ef\n      swap2\n        /* \"#utility.yul\":1231:1249   */\n      add\n        /* \"@openzeppelin/contracts@4.9.3/token/ERC20/ERC20.sol\":8163:8189  Transfer(from, to, amount) */\n      mload(0x40)\n      dup1\n      swap2\n      sub\n      swap1\n      log3\n        /* \"@openzeppelin/contracts@4.9.3/token/ERC20/ERC20.sol\":8200:8237  _afterTokenTransfer(from, to, amount) */\n      tag_154\n        /* \"@openzeppelin/contracts@4.9.3/token/ERC20/ERC20.sol\":9375:10034  function _burn(address account, uint256 amount) internal virtual {... */\n      jump\n    tag_109:\n      sub(shl(0xa0, 0x01), 0x01)\n        /* \"@openzeppelin/contracts@4.9.3/token/ERC20/ERC20.sol\":9458:9479  account != address(0) */\n      dup3\n      and\n        /* \"@openzeppelin/contracts@4.9.3/token/ERC20/ERC20.sol\":9450:9517  require(account != address(0), \"ERC20: burn from the zero address\") */\n      tag_171\n      jumpi\n      mload(0x40)\n      shl(0xe5, 0x461bcd)\n      dup2\n      mstore\n        /* \"#utility.yul\":7594:7596   */\n      0x20\n        /* \"@openzeppelin/contracts@4.9.3/token/ERC20/ERC20.sol\":9450:9517  require(account != address(0), \"ERC20: burn from the zero address\") */\n      0x04\n      dup3\n      add\n        /* \"#utility.yul\":7576:7597   */\n      mstore\n        /* \"#utility.yul\":7633:7635   */\n      0x21\n        /* \"#utility.yul\":7613:7631   */\n      0x24\n      dup3\n      add\n        /* \"#utility.yul\":7606:7636   */\n      mstore\n        /* \"#utility.yul\":7672:7706   */\n      0x45524332303a206275726e2066726f6d20746865207a65726f20616464726573\n        /* \"#utility.yul\":7652:7670   */\n      0x44\n      dup3\n      add\n        /* \"#utility.yul\":7645:7707   */\n      mstore\n      shl(0xf8, 0x73)\n        /* \"#utility.yul\":7723:7741   */\n      0x64\n      dup3\n      add\n        /* \"#utility.yul\":7716:7747   */\n      mstore\n        /* \"#utility.yul\":7764:7783   */\n      0x84\n      add\n        /* \"@openzeppelin/contracts@4.9.3/token/ERC20/ERC20.sol\":9450:9517  require(account != address(0), \"ERC20: burn from the zero address\") */\n      tag_125\n        /* \"#utility.yul\":7392:7789   */\n      jump\n        /* \"@openzeppelin/contracts@4.9.3/token/ERC20/ERC20.sol\":9450:9517  require(account != address(0), \"ERC20: burn from the zero address\") */\n    tag_171:\n      sub(shl(0xa0, 0x01), 0x01)\n        /* \"@openzeppelin/contracts@4.9.3/token/ERC20/ERC20.sol\":9613:9631  _balances[account] */\n      dup3\n      and\n        /* \"@openzeppelin/contracts@4.9.3/token/ERC20/ERC20.sol\":9588:9610  uint256 accountBalance */\n      0x00\n        /* \"@openzeppelin/contracts@4.9.3/token/ERC20/ERC20.sol\":9613:9631  _balances[account] */\n      swap1\n      dup2\n      mstore\n      0x20\n      dup2\n      swap1\n      mstore\n      0x40\n      swap1\n      keccak256\n      sload\n        /* \"@openzeppelin/contracts@4.9.3/token/ERC20/ERC20.sol\":9649:9673  accountBalance >= amount */\n      dup2\n      dup2\n      lt\n      iszero\n        /* \"@openzeppelin/contracts@4.9.3/token/ERC20/ERC20.sol\":9641:9712  require(accountBalance >= amount, \"ERC20: burn amount exceeds balance\") */\n      tag_175\n      jumpi\n      mload(0x40)\n      shl(0xe5, 0x461bcd)\n      dup2\n      mstore\n        /* \"#utility.yul\":7996:7998   */\n      0x20\n        /* \"@openzeppelin/contracts@4.9.3/token/ERC20/ERC20.sol\":9641:9712  require(accountBalance >= amount, \"ERC20: burn amount exceeds balance\") */\n      0x04\n      dup3\n      add\n        /* \"#utility.yul\":7978:7999   */\n      mstore\n        /* \"#utility.yul\":8035:8037   */\n      0x22\n        /* \"#utility.yul\":8015:8033   */\n      0x24\n      dup3\n      add\n        /* \"#utility.yul\":8008:8038   */\n      mstore\n        /* \"#utility.yul\":8074:8108   */\n      0x45524332303a206275726e20616d6f756e7420657863656564732062616c616e\n        /* \"#utility.yul\":8054:8072   */\n      0x44\n      dup3\n      add\n        /* \"#utility.yul\":8047:8109   */\n      mstore\n      shl(0xf0, 0x6365)\n        /* \"#utility.yul\":8125:8143   */\n      0x64\n      dup3\n      add\n        /* \"#utility.yul\":8118:8150   */\n      mstore\n        /* \"#utility.yul\":8167:8186   */\n      0x84\n      add\n        /* \"@openzeppelin/contracts@4.9.3/token/ERC20/ERC20.sol\":9641:9712  require(accountBalance >= amount, \"ERC20: burn amount exceeds balance\") */\n      tag_125\n        /* \"#utility.yul\":7794:8192   */\n      jump\n        /* \"@openzeppelin/contracts@4.9.3/token/ERC20/ERC20.sol\":9641:9712  require(accountBalance >= amount, \"ERC20: burn amount exceeds balance\") */\n    tag_175:\n      sub(shl(0xa0, 0x01), 0x01)\n        /* \"@openzeppelin/contracts@4.9.3/token/ERC20/ERC20.sol\":9746:9764  _balances[account] */\n      dup4\n      and\n        /* \"@openzeppelin/contracts@4.9.3/token/ERC20/ERC20.sol\":9746:9755  _balances */\n      0x00\n        /* \"@openzeppelin/contracts@4.9.3/token/ERC20/ERC20.sol\":9746:9764  _balances[account] */\n      dup2\n      dup2\n      mstore\n      0x20\n      dup2\n      dup2\n      mstore\n      0x40\n      dup1\n      dup4\n      keccak256\n        /* \"@openzeppelin/contracts@4.9.3/token/ERC20/ERC20.sol\":9767:9790  accountBalance - amount */\n      dup7\n      dup7\n      sub\n        /* \"@openzeppelin/contracts@4.9.3/token/ERC20/ERC20.sol\":9746:9790  _balances[account] = accountBalance - amount */\n      swap1\n      sstore\n        /* \"@openzeppelin/contracts@4.9.3/token/ERC20/ERC20.sol\":9883:9895  _totalSupply */\n      0x02\n        /* \"@openzeppelin/contracts@4.9.3/token/ERC20/ERC20.sol\":9883:9905  _totalSupply -= amount */\n      dup1\n      sload\n      dup8\n      swap1\n      sub\n      swap1\n      sstore\n        /* \"@openzeppelin/contracts@4.9.3/token/ERC20/ERC20.sol\":9931:9968  Transfer(account, address(0), amount) */\n      mload\n        /* \"#utility.yul\":1258:1283   */\n      dup6\n      dup2\n      mstore\n        /* \"@openzeppelin/contracts@4.9.3/token/ERC20/ERC20.sol\":9746:9755  _balances */\n      swap2\n      swap3\n        /* \"@openzeppelin/contracts@4.9.3/token/ERC20/ERC20.sol\":9746:9764  _balances[account] */\n      swap2\n        /* \"@openzeppelin/contracts@4.9.3/token/ERC20/ERC20.sol\":9931:9968  Transfer(account, address(0), amount) */\n      0xddf252ad1be2c89b69c2b068fc378daa952ba7f163c4a11628f55a4df523b3ef\n      swap2\n        /* \"#utility.yul\":1231:1249   */\n      add\n        /* \"@openzeppelin/contracts@4.9.3/token/ERC20/ERC20.sol\":9931:9968  Transfer(account, address(0), amount) */\n      tag_147\n        /* \"#utility.yul\":1112:1289   */\n      jump\n        /* \"#utility.yul\":14:432   */\n    tag_23:\n        /* \"#utility.yul\":163:165   */\n      0x20\n        /* \"#utility.yul\":152:161   */\n      dup2\n        /* \"#utility.yul\":145:166   */\n      mstore\n        /* \"#utility.yul\":126:130   */\n      0x00\n        /* \"#utility.yul\":195:201   */\n      dup3\n        /* \"#utility.yul\":189:202   */\n      mload\n        /* \"#utility.yul\":238:244   */\n      dup1\n        /* \"#utility.yul\":233:235   */\n      0x20\n        /* \"#utility.yul\":222:231   */\n      dup5\n        /* \"#utility.yul\":218:236   */\n      add\n        /* \"#utility.yul\":211:245   */\n      mstore\n        /* \"#utility.yul\":297:303   */\n      dup1\n        /* \"#utility.yul\":292:294   */\n      0x20\n        /* \"#utility.yul\":284:290   */\n      dup6\n        /* \"#utility.yul\":280:295   */\n      add\n        /* \"#utility.yul\":275:277   */\n      0x40\n        /* \"#utility.yul\":264:273   */\n      dup6\n        /* \"#utility.yul\":260:278   */\n      add\n        /* \"#utility.yul\":254:304   */\n      mcopy\n        /* \"#utility.yul\":353:354   */\n      0x00\n        /* \"#utility.yul\":348:350   */\n      0x40\n        /* \"#utility.yul\":339:345   */\n      dup3\n        /* \"#utility.yul\":328:337   */\n      dup6\n        /* \"#utility.yul\":324:346   */\n      add\n        /* \"#utility.yul\":320:351   */\n      add\n        /* \"#utility.yul\":313:355   */\n      mstore\n        /* \"#utility.yul\":423:425   */\n      0x40\n        /* \"#utility.yul\":416:418   */\n      0x1f\n        /* \"#utility.yul\":412:419   */\n      not\n        /* \"#utility.yul\":407:409   */\n      0x1f\n        /* \"#utility.yul\":399:405   */\n      dup4\n        /* \"#utility.yul\":395:410   */\n      add\n        /* \"#utility.yul\":391:420   */\n      and\n        /* \"#utility.yul\":380:389   */\n      dup5\n        /* \"#utility.yul\":376:421   */\n      add\n        /* \"#utility.yul\":372:426   */\n      add\n        /* \"#utility.yul\":364:426   */\n      swap2\n      pop\n      pop\n        /* \"#utility.yul\":14:432   */\n      swap3\n      swap2\n      pop\n      pop\n      jump\t// out\n        /* \"#utility.yul\":437:610   */\n    tag_182:\n        /* \"#utility.yul\":505:525   */\n      dup1\n      calldataload\n      sub(shl(0xa0, 0x01), 0x01)\n        /* \"#utility.yul\":554:585   */\n      dup2\n      and\n        /* \"#utility.yul\":544:586   */\n      dup2\n      eq\n        /* \"#utility.yul\":534:604   */\n      tag_186\n      jumpi\n        /* \"#utility.yul\":600:601   */\n      0x00\n        /* \"#utility.yul\":597:598   */\n      0x00\n        /* \"#utility.yul\":590:602   */\n      revert\n        /* \"#utility.yul\":534:604   */\n    tag_186:\n        /* \"#utility.yul\":437:610   */\n      swap2\n      swap1\n      pop\n      jump\t// out\n        /* \"#utility.yul\":615:915   */\n    tag_26:\n        /* \"#utility.yul\":683:689   */\n      0x00\n        /* \"#utility.yul\":691:697   */\n      0x00\n        /* \"#utility.yul\":744:746   */\n      0x40\n        /* \"#utility.yul\":732:741   */\n      dup4\n        /* \"#utility.yul\":723:730   */\n      dup6\n        /* \"#utility.yul\":719:742   */\n      sub\n        /* \"#utility.yul\":715:747   */\n      slt\n        /* \"#utility.yul\":712:764   */\n      iszero\n      tag_188\n      jumpi\n        /* \"#utility.yul\":760:761   */\n      0x00\n        /* \"#utility.yul\":757:758   */\n      0x00\n        /* \"#utility.yul\":750:762   */\n      revert\n        /* \"#utility.yul\":712:764   */\n    tag_188:\n        /* \"#utility.yul\":783:812   */\n      tag_189\n        /* \"#utility.yul\":802:811   */\n      dup4\n        /* \"#utility.yul\":783:812   */\n      tag_182\n      jump\t// in\n    tag_189:\n        /* \"#utility.yul\":773:812   */\n      swap5\n        /* \"#utility.yul\":881:883   */\n      0x20\n        /* \"#utility.yul\":866:884   */\n      swap4\n      swap1\n      swap4\n      add\n        /* \"#utility.yul\":853:885   */\n      calldataload\n      swap4\n      pop\n      pop\n      pop\n        /* \"#utility.yul\":615:915   */\n      jump\t// out\n        /* \"#utility.yul\":1294:1668   */\n    tag_36:\n        /* \"#utility.yul\":1371:1377   */\n      0x00\n        /* \"#utility.yul\":1379:1385   */\n      0x00\n        /* \"#utility.yul\":1387:1393   */\n      0x00\n        /* \"#utility.yul\":1440:1442   */\n      0x60\n        /* \"#utility.yul\":1428:1437   */\n      dup5\n        /* \"#utility.yul\":1419:1426   */\n      dup7\n        /* \"#utility.yul\":1415:1438   */\n      sub\n        /* \"#utility.yul\":1411:1443   */\n      slt\n        /* \"#utility.yul\":1408:1460   */\n      iszero\n      tag_193\n      jumpi\n        /* \"#utility.yul\":1456:1457   */\n      0x00\n        /* \"#utility.yul\":1453:1454   */\n      0x00\n        /* \"#utility.yul\":1446:1458   */\n      revert\n        /* \"#utility.yul\":1408:1460   */\n    tag_193:\n        /* \"#utility.yul\":1479:1508   */\n      tag_194\n        /* \"#utility.yul\":1498:1507   */\n      dup5\n        /* \"#utility.yul\":1479:1508   */\n      tag_182\n      jump\t// in\n    tag_194:\n        /* \"#utility.yul\":1469:1508   */\n      swap3\n      pop\n        /* \"#utility.yul\":1527:1565   */\n      tag_195\n        /* \"#utility.yul\":1561:1563   */\n      0x20\n        /* \"#utility.yul\":1550:1559   */\n      dup6\n        /* \"#utility.yul\":1546:1564   */\n      add\n        /* \"#utility.yul\":1527:1565   */\n      tag_182\n      jump\t// in\n    tag_195:\n        /* \"#utility.yul\":1294:1668   */\n      swap3\n      swap6\n        /* \"#utility.yul\":1517:1565   */\n      swap3\n      swap5\n      pop\n      pop\n      pop\n        /* \"#utility.yul\":1634:1636   */\n      0x40\n        /* \"#utility.yul\":1619:1637   */\n      swap2\n      swap1\n      swap2\n      add\n        /* \"#utility.yul\":1606:1638   */\n      calldataload\n      swap1\n        /* \"#utility.yul\":1294:1668   */\n      jump\t// out\n        /* \"#utility.yul\":1862:2088   */\n    tag_49:\n        /* \"#utility.yul\":1921:1927   */\n      0x00\n        /* \"#utility.yul\":1974:1976   */\n      0x20\n        /* \"#utility.yul\":1962:1971   */\n      dup3\n        /* \"#utility.yul\":1953:1960   */\n      dup5\n        /* \"#utility.yul\":1949:1972   */\n      sub\n        /* \"#utility.yul\":1945:1977   */\n      slt\n        /* \"#utility.yul\":1942:1994   */\n      iszero\n      tag_198\n      jumpi\n        /* \"#utility.yul\":1990:1991   */\n      0x00\n        /* \"#utility.yul\":1987:1988   */\n      0x00\n        /* \"#utility.yul\":1980:1992   */\n      revert\n        /* \"#utility.yul\":1942:1994   */\n    tag_198:\n      pop\n        /* \"#utility.yul\":2035:2058   */\n      calldataload\n      swap2\n        /* \"#utility.yul\":1862:2088   */\n      swap1\n      pop\n      jump\t// out\n        /* \"#utility.yul\":2093:2279   */\n    tag_53:\n        /* \"#utility.yul\":2152:2158   */\n      0x00\n        /* \"#utility.yul\":2205:2207   */\n      0x20\n        /* \"#utility.yul\":2193:2202   */\n      dup3\n        /* \"#utility.yul\":2184:2191   */\n      dup5\n        /* \"#utility.yul\":2180:2203   */\n      sub\n        /* \"#utility.yul\":2176:2208   */\n      slt\n        /* \"#utility.yul\":2173:2225   */\n      iszero\n      tag_200\n      jumpi\n        /* \"#utility.yul\":2221:2222   */\n      0x00\n        /* \"#utility.yul\":2218:2219   */\n      0x00\n        /* \"#utility.yul\":2211:2223   */\n      revert\n        /* \"#utility.yul\":2173:2225   */\n    tag_200:\n        /* \"#utility.yul\":2244:2273   */\n      tag_201\n        /* \"#utility.yul\":2263:2272   */\n      dup3\n        /* \"#utility.yul\":2244:2273   */\n      tag_182\n      jump\t// in\n    tag_201:\n        /* \"#utility.yul\":2234:2273   */\n      swap4\n        /* \"#utility.yul\":2093:2279   */\n      swap3\n      pop\n      pop\n      pop\n      jump\t// out\n        /* \"#utility.yul\":2284:3058   */\n    tag_72:\n        /* \"#utility.yul\":2372:2378   */\n      0x00\n        /* \"#utility.yul\":2380:2386   */\n      0x00\n        /* \"#utility.yul\":2388:2394   */\n      0x00\n        /* \"#utility.yul\":2396:2402   */\n      0x00\n        /* \"#utility.yul\":2449:2451   */\n      0x60\n        /* \"#utility.yul\":2437:2446   */\n      dup6\n        /* \"#utility.yul\":2428:2435   */\n      dup8\n        /* \"#utility.yul\":2424:2447   */\n      sub\n        /* \"#utility.yul\":2420:2452   */\n      slt\n        /* \"#utility.yul\":2417:2469   */\n      iszero\n      tag_203\n      jumpi\n        /* \"#utility.yul\":2465:2466   */\n      0x00\n        /* \"#utility.yul\":2462:2463   */\n      0x00\n        /* \"#utility.yul\":2455:2467   */\n      revert\n        /* \"#utility.yul\":2417:2469   */\n    tag_203:\n        /* \"#utility.yul\":2488:2517   */\n      tag_204\n        /* \"#utility.yul\":2507:2516   */\n      dup6\n        /* \"#utility.yul\":2488:2517   */\n      tag_182\n      jump\t// in\n    tag_204:\n        /* \"#utility.yul\":2478:2517   */\n      swap4\n      pop\n        /* \"#utility.yul\":2586:2588   */\n      0x20\n        /* \"#utility.yul\":2571:2589   */\n      dup6\n      add\n        /* \"#utility.yul\":2558:2590   */\n      calldataload\n      swap3\n      pop\n        /* \"#utility.yul\":2665:2667   */\n      0x40\n        /* \"#utility.yul\":2650:2668   */\n      dup6\n      add\n        /* \"#utility.yul\":2637:2669   */\n      calldataload\n        /* \"#utility.yul\":2692:2710   */\n      0xffffffffffffffff\n        /* \"#utility.yul\":2681:2711   */\n      dup2\n      gt\n        /* \"#utility.yul\":2678:2728   */\n      iszero\n      tag_205\n      jumpi\n        /* \"#utility.yul\":2724:2725   */\n      0x00\n        /* \"#utility.yul\":2721:2722   */\n      0x00\n        /* \"#utility.yul\":2714:2726   */\n      revert\n        /* \"#utility.yul\":2678:2728   */\n    tag_205:\n        /* \"#utility.yul\":2747:2769   */\n      dup6\n      add\n        /* \"#utility.yul\":2800:2804   */\n      0x1f\n        /* \"#utility.yul\":2792:2805   */\n      dup2\n      add\n        /* \"#utility.yul\":2788:2815   */\n      dup8\n      sgt\n        /* \"#utility.yul\":2778:2833   */\n      tag_206\n      jumpi\n        /* \"#utility.yul\":2829:2830   */\n      0x00\n        /* \"#utility.yul\":2826:2827   */\n      0x00\n        /* \"#utility.yul\":2819:2831   */\n      revert\n        /* \"#utility.yul\":2778:2833   */\n    tag_206:\n        /* \"#utility.yul\":2869:2871   */\n      dup1\n        /* \"#utility.yul\":2856:2872   */\n      calldataload\n        /* \"#utility.yul\":2895:2913   */\n      0xffffffffffffffff\n        /* \"#utility.yul\":2887:2893   */\n      dup2\n        /* \"#utility.yul\":2884:2914   */\n      gt\n        /* \"#utility.yul\":2881:2931   */\n      iszero\n      tag_207\n      jumpi\n        /* \"#utility.yul\":2927:2928   */\n      0x00\n        /* \"#utility.yul\":2924:2925   */\n      0x00\n        /* \"#utility.yul\":2917:2929   */\n      revert\n        /* \"#utility.yul\":2881:2931   */\n    tag_207:\n        /* \"#utility.yul\":2972:2979   */\n      dup8\n        /* \"#utility.yul\":2967:2969   */\n      0x20\n        /* \"#utility.yul\":2958:2964   */\n      dup3\n        /* \"#utility.yul\":2954:2956   */\n      dup5\n        /* \"#utility.yul\":2950:2965   */\n      add\n        /* \"#utility.yul\":2946:2970   */\n      add\n        /* \"#utility.yul\":2943:2980   */\n      gt\n        /* \"#utility.yul\":2940:2997   */\n      iszero\n      tag_208\n      jumpi\n        /* \"#utility.yul\":2993:2994   */\n      0x00\n        /* \"#utility.yul\":2990:2991   */\n      0x00\n        /* \"#utility.yul\":2983:2995   */\n      revert\n        /* \"#utility.yul\":2940:2997   */\n    tag_208:\n        /* \"#utility.yul\":2284:3058   */\n      swap5\n      swap8\n      swap4\n      swap7\n      pop\n        /* \"#utility.yul\":3024:3026   */\n      0x20\n        /* \"#utility.yul\":3016:3027   */\n      add\n      swap5\n      pop\n      pop\n      pop\n        /* \"#utility.yul\":2284:3058   */\n      jump\t// out\n        /* \"#utility.yul\":3063:3323   */\n    tag_77:\n        /* \"#utility.yul\":3131:3137   */\n      0x00\n        /* \"#utility.yul\":3139:3145   */\n      0x00\n        /* \"#utility.yul\":3192:3194   */\n      0x40\n        /* \"#utility.yul\":3180:3189   */\n      dup4\n        /* \"#utility.yul\":3171:3178   */\n      dup6\n        /* \"#utility.yul\":3167:3190   */\n      sub\n        /* \"#utility.yul\":3163:3195   */\n      slt\n        /* \"#utility.yul\":3160:3212   */\n      iszero\n      tag_210\n      jumpi\n        /* \"#utility.yul\":3208:3209   */\n      0x00\n        /* \"#utility.yul\":3205:3206   */\n      0x00\n        /* \"#utility.yul\":3198:3210   */\n      revert\n        /* \"#utility.yul\":3160:3212   */\n    tag_210:\n        /* \"#utility.yul\":3231:3260   */\n      tag_211\n        /* \"#utility.yul\":3250:3259   */\n      dup4\n        /* \"#utility.yul\":3231:3260   */\n      tag_182\n      jump\t// in\n    tag_211:\n        /* \"#utility.yul\":3221:3260   */\n      swap2\n      pop\n        /* \"#utility.yul\":3279:3317   */\n      tag_212\n        /* \"#utility.yul\":3313:3315   */\n      0x20\n        /* \"#utility.yul\":3302:3311   */\n      dup5\n        /* \"#utility.yul\":3298:3316   */\n      add\n        /* \"#utility.yul\":3279:3317   */\n      tag_182\n      jump\t// in\n    tag_212:\n        /* \"#utility.yul\":3269:3317   */\n      swap1\n      pop\n        /* \"#utility.yul\":3063:3323   */\n      swap3\n      pop\n      swap3\n      swap1\n      pop\n      jump\t// out\n        /* \"#utility.yul\":3328:3708   */\n    tag_82:\n        /* \"#utility.yul\":3407:3408   */\n      0x01\n        /* \"#utility.yul\":3403:3415   */\n      dup2\n      dup2\n      shr\n      swap1\n        /* \"#utility.yul\":3450:3462   */\n      dup3\n      and\n      dup1\n        /* \"#utility.yul\":3471:3532   */\n      tag_214\n      jumpi\n        /* \"#utility.yul\":3525:3529   */\n      0x7f\n        /* \"#utility.yul\":3517:3523   */\n      dup3\n        /* \"#utility.yul\":3513:3530   */\n      and\n        /* \"#utility.yul\":3503:3530   */\n      swap2\n      pop\n        /* \"#utility.yul\":3471:3532   */\n    tag_214:\n        /* \"#utility.yul\":3578:3580   */\n      0x20\n        /* \"#utility.yul\":3570:3576   */\n      dup3\n        /* \"#utility.yul\":3567:3581   */\n      lt\n        /* \"#utility.yul\":3547:3565   */\n      dup2\n        /* \"#utility.yul\":3544:3582   */\n      sub\n        /* \"#utility.yul\":3541:3702   */\n      tag_215\n      jumpi\n        /* \"#utility.yul\":3624:3634   */\n      0x4e487b71\n        /* \"#utility.yul\":3619:3622   */\n      0xe0\n        /* \"#utility.yul\":3615:3635   */\n      shl\n        /* \"#utility.yul\":3612:3613   */\n      0x00\n        /* \"#utility.yul\":3605:3636   */\n      mstore\n        /* \"#utility.yul\":3659:3663   */\n      0x22\n        /* \"#utility.yul\":3656:3657   */\n      0x04\n        /* \"#utility.yul\":3649:3664   */\n      mstore\n        /* \"#utility.yul\":3687:3691   */\n      0x24\n        /* \"#utility.yul\":3684:3685   */\n      0x00\n        /* \"#utility.yul\":3677:3692   */\n      revert\n        /* \"#utility.yul\":3541:3702   */\n    tag_215:\n      pop\n        /* \"#utility.yul\":3328:3708   */\n      swap2\n      swap1\n      pop\n      jump\t// out\n        /* \"#utility.yul\":3713:3935   */\n    tag_105:\n        /* \"#utility.yul\":3778:3787   */\n      dup1\n      dup3\n      add\n        /* \"#utility.yul\":3799:3809   */\n      dup1\n      dup3\n      gt\n        /* \"#utility.yul\":3796:3929   */\n      iszero\n      tag_87\n      jumpi\n        /* \"#utility.yul\":3851:3861   */\n      0x4e487b71\n        /* \"#utility.yul\":3846:3849   */\n      0xe0\n        /* \"#utility.yul\":3842:3862   */\n      shl\n        /* \"#utility.yul\":3839:3840   */\n      0x00\n        /* \"#utility.yul\":3832:3863   */\n      mstore\n        /* \"#utility.yul\":3886:3890   */\n      0x11\n        /* \"#utility.yul\":3883:3884   */\n      0x04\n        /* \"#utility.yul\":3876:3891   */\n      mstore\n        /* \"#utility.yul\":3914:3918   */\n      0x24\n        /* \"#utility.yul\":3911:3912   */\n      0x00\n        /* \"#utility.yul\":3904:3919   */\n      revert\n        /* \"#utility.yul\":4346:5004   */\n    tag_134:\n      sub(shl(0xa0, 0x01), 0x01)\n        /* \"#utility.yul\":4587:4619   */\n      dup7\n      dup2\n      and\n        /* \"#utility.yul\":4569:4620   */\n      dup3\n      mstore\n        /* \"#utility.yul\":4651:4653   */\n      0x20\n        /* \"#utility.yul\":4636:4654   */\n      dup3\n      add\n        /* \"#utility.yul\":4629:4663   */\n      dup7\n      swap1\n      mstore\n        /* \"#utility.yul\":4699:4731   */\n      dup5\n      and\n        /* \"#utility.yul\":4694:4696   */\n      0x40\n        /* \"#utility.yul\":4679:4697   */\n      dup3\n      add\n        /* \"#utility.yul\":4672:4732   */\n      mstore\n        /* \"#utility.yul\":4768:4771   */\n      0x80\n        /* \"#utility.yul\":4763:4765   */\n      0x60\n        /* \"#utility.yul\":4748:4766   */\n      dup3\n      add\n        /* \"#utility.yul\":4741:4772   */\n      dup2\n      swap1\n      mstore\n        /* \"#utility.yul\":4788:4807   */\n      dup2\n      add\n        /* \"#utility.yul\":4781:4816   */\n      dup3\n      swap1\n      mstore\n        /* \"#utility.yul\":4809:4815   */\n      dup2\n        /* \"#utility.yul\":4859:4865   */\n      dup4\n        /* \"#utility.yul\":4607:4610   */\n      0xa0\n        /* \"#utility.yul\":4838:4857   */\n      dup4\n      add\n        /* \"#utility.yul\":4825:4874   */\n      calldatacopy\n        /* \"#utility.yul\":4924:4925   */\n      0x00\n        /* \"#utility.yul\":4894:4916   */\n      dup2\n      dup4\n      add\n        /* \"#utility.yul\":4918:4921   */\n      0xa0\n        /* \"#utility.yul\":4890:4922   */\n      swap1\n      dup2\n      add\n        /* \"#utility.yul\":4883:4926   */\n      swap2\n      swap1\n      swap2\n      mstore\n        /* \"#utility.yul\":4987:4989   */\n      0x1f\n        /* \"#utility.yul\":4966:4981   */\n      swap1\n      swap3\n      add\n      not(0x1f)\n        /* \"#utility.yul\":4962:4991   */\n      and\n        /* \"#utility.yul\":4947:4992   */\n      add\n        /* \"#utility.yul\":4943:4998   */\n      add\n      swap5\n        /* \"#utility.yul\":4346:5004   */\n      swap4\n      pop\n      pop\n      pop\n      pop\n      jump\t// out\n\n    auxdata: 0xa2646970667358221220c0b85817c0da7a1475b147cfd758074d426a7b1460015aad35cc56c4f7852ef364736f6c634300081d0033\n}\n",
				"bytecode": {
					"linkReferences": {},
					"object": "608060405234801561000f575f5ffd5b50604051610eeb380380610eeb83398101604081905261002e916101d2565b8181600361003c83826102ba565b50600461004982826102ba565b505050610068336b033b2e3c9fd0803ce800000061006f60201b60201c565b5050610399565b6001600160a01b0382166100c95760405162461bcd60e51b815260206004820152601f60248201527f45524332303a206d696e7420746f20746865207a65726f206164647265737300604482015260640160405180910390fd5b8060025f8282546100da9190610374565b90915550506001600160a01b0382165f81815260208181526040808320805486019055518481527fddf252ad1be2c89b69c2b068fc378daa952ba7f163c4a11628f55a4df523b3ef910160405180910390a35050565b505050565b634e487b7160e01b5f52604160045260245ffd5b5f82601f830112610158575f5ffd5b81516001600160401b0381111561017157610171610135565b604051601f8201601f19908116603f011681016001600160401b038111828210171561019f5761019f610135565b6040528181528382016020018510156101b6575f5ffd5b8160208501602083015e5f918101602001919091529392505050565b5f5f604083850312156101e3575f5ffd5b82516001600160401b038111156101f8575f5ffd5b61020485828601610149565b602085015190935090506001600160401b03811115610221575f5ffd5b61022d85828601610149565b9150509250929050565b600181811c9082168061024b57607f821691505b60208210810361026957634e487b7160e01b5f52602260045260245ffd5b50919050565b601f82111561013057805f5260205f20601f840160051c810160208510156102945750805b601f840160051c820191505b818110156102b3575f81556001016102a0565b5050505050565b81516001600160401b038111156102d3576102d3610135565b6102e7816102e18454610237565b8461026f565b6020601f821160018114610319575f83156103025750848201515b5f19600385901b1c1916600184901b1784556102b3565b5f84815260208120601f198516915b828110156103485787850151825560209485019460019092019101610328565b508482101561036557868401515f19600387901b60f8161c191681555b50505050600190811b01905550565b8082018082111561039357634e487b7160e01b5f52601160045260245ffd5b92915050565b610b45806103a65f395ff3fe608060405234801561000f575f5ffd5b50600436106100e5575f3560e01c806370a0823111610088578063a457c2d711610063578063a457c2d7146101c9578063a9059cbb146101dc578063cae9ca51146101ef578063dd62ed3e14610202575f5ffd5b806370a082311461018657806379cc6790146101ae57806395d89b41146101c1575f5ffd5b806323b872dd116100c357806323b872dd1461013c578063313ce5671461014f578063395093511461015e57806342966c6814610171575f5ffd5b806306fdde03146100e9578063095ea7b31461010757806318160ddd1461012a575b5f5ffd5b6100f1610215565b6040516100fe91906108cb565b60405180910390f35b61011a61011536600461091b565b6102a5565b60405190151581526020016100fe565b6002545b6040519081526020016100fe565b61011a61014a366004610943565b6102be565b604051601281526020016100fe565b61011a61016c36600461091b565b6102e1565b61018461017f36600461097d565b610302565b005b61012e610194366004610994565b6001600160a01b03165f9081526020819052604090205490565b6101846101bc36600461091b565b61030f565b6100f1610328565b61011a6101d736600461091b565b610337565b61011a6101ea36600461091b565b6103b6565b61011a6101fd3660046109b4565b6103c3565b61012e610210366004610a37565b61043b565b60606003805461022490610a68565b80601f016020809104026020016040519081016040528092919081815260200182805461025090610a68565b801561029b5780601f106102725761010080835404028352916020019161029b565b820191905f5260205f20905b81548152906001019060200180831161027e57829003601f168201915b5050505050905090565b5f336102b2818585610465565b60019150505b92915050565b5f336102cb858285610589565b6102d6858585610601565b506001949350505050565b5f336102b28185856102f3838361043b565b6102fd9190610aa0565b610465565b61030c33826107a3565b50565b61031a823383610589565b61032482826107a3565b5050565b60606004805461022490610a68565b5f3381610344828661043b565b9050838110156103a95760405162461bcd60e51b815260206004820152602560248201527f45524332303a2064656372656173656420616c6c6f77616e63652062656c6f77604482015264207a65726f60d81b60648201526084015b60405180910390fd5b6102d68286868403610465565b5f336102b2818585610601565b5f6103ce85856102a5565b50604051638f4ffcb160e01b81526001600160a01b03861690638f4ffcb1906104039033908890309089908990600401610abf565b5f604051808303815f87803b15801561041a575f5ffd5b505af115801561042c573d5f5f3e3d5ffd5b50600198975050505050505050565b6001600160a01b039182165f90815260016020908152604080832093909416825291909152205490565b6001600160a01b0383166104c75760405162461bcd60e51b8152602060048201526024808201527f45524332303a20617070726f76652066726f6d20746865207a65726f206164646044820152637265737360e01b60648201526084016103a0565b6001600160a01b0382166105285760405162461bcd60e51b815260206004820152602260248201527f45524332303a20617070726f766520746f20746865207a65726f206164647265604482015261737360f01b60648201526084016103a0565b6001600160a01b038381165f8181526001602090815260408083209487168084529482529182902085905590518481527f8c5be1e5ebec7d5bd14f71427d1e84f3dd0314c0f7b2291e5b200ac8c7c3b92591015b60405180910390a3505050565b5f610594848461043b565b90505f1981146105fb57818110156105ee5760405162461bcd60e51b815260206004820152601d60248201527f45524332303a20696e73756666696369656e7420616c6c6f77616e636500000060448201526064016103a0565b6105fb8484848403610465565b50505050565b6001600160a01b0383166106655760405162461bcd60e51b815260206004820152602560248201527f45524332303a207472616e736665722066726f6d20746865207a65726f206164604482015264647265737360d81b60648201526084016103a0565b6001600160a01b0382166106c75760405162461bcd60e51b815260206004820152602360248201527f45524332303a207472616e7366657220746f20746865207a65726f206164647260448201526265737360e81b60648201526084016103a0565b6001600160a01b0383165f908152602081905260409020548181101561073e5760405162461bcd60e51b815260206004820152602660248201527f45524332303a207472616e7366657220616d6f756e7420657863656564732062604482015265616c616e636560d01b60648201526084016103a0565b6001600160a01b038481165f81815260208181526040808320878703905593871680835291849020805487019055925185815290927fddf252ad1be2c89b69c2b068fc378daa952ba7f163c4a11628f55a4df523b3ef910160405180910390a36105fb565b6001600160a01b0382166108035760405162461bcd60e51b815260206004820152602160248201527f45524332303a206275726e2066726f6d20746865207a65726f206164647265736044820152607360f81b60648201526084016103a0565b6001600160a01b0382165f90815260208190526040902054818110156108765760405162461bcd60e51b815260206004820152602260248201527f45524332303a206275726e20616d6f756e7420657863656564732062616c616e604482015261636560f01b60648201526084016103a0565b6001600160a01b0383165f818152602081815260408083208686039055600280548790039055518581529192917fddf252ad1be2c89b69c2b068fc378daa952ba7f163c4a11628f55a4df523b3ef910161057c565b602081525f82518060208401528060208501604085015e5f604082850101526040601f19601f83011684010191505092915050565b80356001600160a01b0381168114610916575f5ffd5b919050565b5f5f6040838503121561092c575f5ffd5b61093583610900565b946020939093013593505050565b5f5f5f60608486031215610955575f5ffd5b61095e84610900565b925061096c60208501610900565b929592945050506040919091013590565b5f6020828403121561098d575f5ffd5b5035919050565b5f602082840312156109a4575f5ffd5b6109ad82610900565b9392505050565b5f5f5f5f606085870312156109c7575f5ffd5b6109d085610900565b935060208501359250604085013567ffffffffffffffff8111156109f2575f5ffd5b8501601f81018713610a02575f5ffd5b803567ffffffffffffffff811115610a18575f5ffd5b876020828401011115610a29575f5ffd5b949793965060200194505050565b5f5f60408385031215610a48575f5ffd5b610a5183610900565b9150610a5f60208401610900565b90509250929050565b600181811c90821680610a7c57607f821691505b602082108103610a9a57634e487b7160e01b5f52602260045260245ffd5b50919050565b808201808211156102b857634e487b7160e01b5f52601160045260245ffd5b6001600160a01b03868116825260208201869052841660408201526080606082018190528101829052818360a08301375f81830160a090810191909152601f909201601f1916010194935050505056fea2646970667358221220c0b85817c0da7a1475b147cfd758074d426a7b1460015aad35cc56c4f7852ef364736f6c634300081d0033",
					"opcodes": "PUSH1 0x80 PUSH1 0x40 MSTORE CALLVALUE DUP1 ISZERO PUSH2 0xF JUMPI PUSH0 PUSH0 REVERT JUMPDEST POP PUSH1 0x40 MLOAD PUSH2 0xEEB CODESIZE SUB DUP1 PUSH2 0xEEB DUP4 CODECOPY DUP2 ADD PUSH1 0x40 DUP2 SWAP1 MSTORE PUSH2 0x2E SWAP2 PUSH2 0x1D2 JUMP JUMPDEST DUP2 DUP2 PUSH1 0x3 PUSH2 0x3C DUP4 DUP3 PUSH2 0x2BA JUMP JUMPDEST POP PUSH1 0x4 PUSH2 0x49 DUP3 DUP3 PUSH2 0x2BA JUMP JUMPDEST POP POP POP PUSH2 0x68 CALLER PUSH12 0x33B2E3C9FD0803CE8000000 PUSH2 0x6F PUSH1 0x20 SHL PUSH1 0x20 SHR JUMP JUMPDEST POP POP PUSH2 0x399 JUMP JUMPDEST PUSH1 0x1 PUSH1 0x1 PUSH1 0xA0 SHL SUB DUP3 AND PUSH2 0xC9 JUMPI PUSH1 0x40 MLOAD PUSH3 0x461BCD PUSH1 0xE5 SHL DUP2 MSTORE PUSH1 0x20 PUSH1 0x4 DUP3 ADD MSTORE PUSH1 0x1F PUSH1 0x24 DUP3 ADD MSTORE PUSH32 0x45524332303A206D696E7420746F20746865207A65726F206164647265737300 PUSH1 0x44 DUP3 ADD MSTORE PUSH1 0x64 ADD PUSH1 0x40 MLOAD DUP1 SWAP2 SUB SWAP1 REVERT JUMPDEST DUP1 PUSH1 0x2 PUSH0 DUP3 DUP3 SLOAD PUSH2 0xDA SWAP2 SWAP1 PUSH2 0x374 JUMP JUMPDEST SWAP1 SWAP2 SSTORE POP POP PUSH1 0x1 PUSH1 0x1 PUSH1 0xA0 SHL SUB DUP3 AND PUSH0 DUP2 DUP2 MSTORE PUSH1 0x20 DUP2 DUP2 MSTORE PUSH1 0x40 DUP1 DUP4 KECCAK256 DUP1 SLOAD DUP7 ADD SWAP1 SSTORE MLOAD DUP5 DUP2 MSTORE PUSH32 0xDDF252AD1BE2C89B69C2B068FC378DAA952BA7F163C4A11628F55A4DF523B3EF SWAP2 ADD PUSH1 0x40 MLOAD DUP1 SWAP2 SUB SWAP1 LOG3 POP POP JUMP JUMPDEST POP POP POP JUMP JUMPDEST PUSH4 0x4E487B71 PUSH1 0xE0 SHL PUSH0 MSTORE PUSH1 0x41 PUSH1 0x4 MSTORE PUSH1 0x24 PUSH0 REVERT JUMPDEST PUSH0 DUP3 PUSH1 0x1F DUP4 ADD SLT PUSH2 0x158 JUMPI PUSH0 PUSH0 REVERT JUMPDEST DUP2 MLOAD PUSH1 0x1 PUSH1 0x1 PUSH1 0x40 SHL SUB DUP2 GT ISZERO PUSH2 0x171 JUMPI PUSH2 0x171 PUSH2 0x135 JUMP JUMPDEST PUSH1 0x40 MLOAD PUSH1 0x1F DUP3 ADD PUSH1 0x1F NOT SWAP1 DUP2 AND PUSH1 0x3F ADD AND DUP2 ADD PUSH1 0x1 PUSH1 0x1 PUSH1 0x40 SHL SUB DUP2 GT DUP3 DUP3 LT OR ISZERO PUSH2 0x19F JUMPI PUSH2 0x19F PUSH2 0x135 JUMP JUMPDEST PUSH1 0x40 MSTORE DUP2 DUP2 MSTORE DUP4 DUP3 ADD PUSH1 0x20 ADD DUP6 LT ISZERO PUSH2 0x1B6 JUMPI PUSH0 PUSH0 REVERT JUMPDEST DUP2 PUSH1 0x20 DUP6 ADD PUSH1 0x20 DUP4 ADD MCOPY PUSH0 SWAP2 DUP2 ADD PUSH1 0x20 ADD SWAP2 SWAP1 SWAP2 MSTORE SWAP4 SWAP3 POP POP POP JUMP JUMPDEST PUSH0 PUSH0 PUSH1 0x40 DUP4 DUP6 SUB SLT ISZERO PUSH2 0x1E3 JUMPI PUSH0 PUSH0 REVERT JUMPDEST DUP3 MLOAD PUSH1 0x1 PUSH1 0x1 PUSH1 0x40 SHL SUB DUP2 GT ISZERO PUSH2 0x1F8 JUMPI PUSH0 PUSH0 REVERT JUMPDEST PUSH2 0x204 DUP6 DUP3 DUP7 ADD PUSH2 0x149 JUMP JUMPDEST PUSH1 0x20 DUP6 ADD MLOAD SWAP1 SWAP4 POP SWAP1 POP PUSH1 0x1 PUSH1 0x1 PUSH1 0x40 SHL SUB DUP2 GT ISZERO PUSH2 0x221 JUMPI PUSH0 PUSH0 REVERT JUMPDEST PUSH2 0x22D DUP6 DUP3 DUP7 ADD PUSH2 0x149 JUMP JUMPDEST SWAP2 POP POP SWAP3 POP SWAP3 SWAP1 POP JUMP JUMPDEST PUSH1 0x1 DUP2 DUP2 SHR SWAP1 DUP3 AND DUP1 PUSH2 0x24B JUMPI PUSH1 0x7F DUP3 AND SWAP2 POP JUMPDEST PUSH1 0x20 DUP3 LT DUP2 SUB PUSH2 0x269 JUMPI PUSH4 0x4E487B71 PUSH1 0xE0 SHL PUSH0 MSTORE PUSH1 0x22 PUSH1 0x4 MSTORE PUSH1 0x24 PUSH0 REVERT JUMPDEST POP SWAP2 SWAP1 POP JUMP JUMPDEST PUSH1 0x1F DUP3 GT ISZERO PUSH2 0x130 JUMPI DUP1 PUSH0 MSTORE PUSH1 0x20 PUSH0 KECCAK256 PUSH1 0x1F DUP5 ADD PUSH1 0x5 SHR DUP2 ADD PUSH1 0x20 DUP6 LT ISZERO PUSH2 0x294 JUMPI POP DUP1 JUMPDEST PUSH1 0x1F DUP5 ADD PUSH1 0x5 SHR DUP3 ADD SWAP2 POP JUMPDEST DUP2 DUP2 LT ISZERO PUSH2 0x2B3 JUMPI PUSH0 DUP2 SSTORE PUSH1 0x1 ADD PUSH2 0x2A0 JUMP JUMPDEST POP POP POP POP POP JUMP JUMPDEST DUP2 MLOAD PUSH1 0x1 PUSH1 0x1 PUSH1 0x40 SHL SUB DUP2 GT ISZERO PUSH2 0x2D3 JUMPI PUSH2 0x2D3 PUSH2 0x135 JUMP JUMPDEST PUSH2 0x2E7 DUP2 PUSH2 0x2E1 DUP5 SLOAD PUSH2 0x237 JUMP JUMPDEST DUP5 PUSH2 0x26F JUMP JUMPDEST PUSH1 0x20 PUSH1 0x1F DUP3 GT PUSH1 0x1 DUP2 EQ PUSH2 0x319 JUMPI PUSH0 DUP4 ISZERO PUSH2 0x302 JUMPI POP DUP5 DUP3 ADD MLOAD JUMPDEST PUSH0 NOT PUSH1 0x3 DUP6 SWAP1 SHL SHR NOT AND PUSH1 0x1 DUP5 SWAP1 SHL OR DUP5 SSTORE PUSH2 0x2B3 JUMP JUMPDEST PUSH0 DUP5 DUP2 MSTORE PUSH1 0x20 DUP2 KECCAK256 PUSH1 0x1F NOT DUP6 AND SWAP2 JUMPDEST DUP3 DUP2 LT ISZERO PUSH2 0x348 JUMPI DUP8 DUP6 ADD MLOAD DUP3 SSTORE PUSH1 0x20 SWAP5 DUP6 ADD SWAP5 PUSH1 0x1 SWAP1 SWAP3 ADD SWAP2 ADD PUSH2 0x328 JUMP JUMPDEST POP DUP5 DUP3 LT ISZERO PUSH2 0x365 JUMPI DUP7 DUP5 ADD MLOAD PUSH0 NOT PUSH1 0x3 DUP8 SWAP1 SHL PUSH1 0xF8 AND SHR NOT AND DUP2 SSTORE JUMPDEST POP POP POP POP PUSH1 0x1 SWAP1 DUP2 SHL ADD SWAP1 SSTORE POP JUMP JUMPDEST DUP1 DUP3 ADD DUP1 DUP3 GT ISZERO PUSH2 0x393 JUMPI PUSH4 0x4E487B71 PUSH1 0xE0 SHL PUSH0 MSTORE PUSH1 0x11 PUSH1 0x4 MSTORE PUSH1 0x24 PUSH0 REVERT JUMPDEST SWAP3 SWAP2 POP POP JUMP JUMPDEST PUSH2 0xB45 DUP1 PUSH2 0x3A6 PUSH0 CODECOPY PUSH0 RETURN INVALID PUSH1 0x80 PUSH1 0x40 MSTORE CALLVALUE DUP1 ISZERO PUSH2 0xF JUMPI PUSH0 PUSH0 REVERT JUMPDEST POP PUSH1 0x4 CALLDATASIZE LT PUSH2 0xE5 JUMPI PUSH0 CALLDATALOAD PUSH1 0xE0 SHR DUP1 PUSH4 0x70A08231 GT PUSH2 0x88 JUMPI DUP1 PUSH4 0xA457C2D7 GT PUSH2 0x63 JUMPI DUP1 PUSH4 0xA457C2D7 EQ PUSH2 0x1C9 JUMPI DUP1 PUSH4 0xA9059CBB EQ PUSH2 0x1DC JUMPI DUP1 PUSH4 0xCAE9CA51 EQ PUSH2 0x1EF JUMPI DUP1 PUSH4 0xDD62ED3E EQ PUSH2 0x202 JUMPI PUSH0 PUSH0 REVERT JUMPDEST DUP1 PUSH4 0x70A08231 EQ PUSH2 0x186 JUMPI DUP1 PUSH4 0x79CC6790 EQ PUSH2 0x1AE JUMPI DUP1 PUSH4 0x95D89B41 EQ PUSH2 0x1C1 JUMPI PUSH0 PUSH0 REVERT JUMPDEST DUP1 PUSH4 0x23B872DD GT PUSH2 0xC3 JUMPI DUP1 PUSH4 0x23B872DD EQ PUSH2 0x13C JUMPI DUP1 PUSH4 0x313CE567 EQ PUSH2 0x14F JUMPI DUP1 PUSH4 0x39509351 EQ PUSH2 0x15E JUMPI DUP1 PUSH4 0x42966C68 EQ PUSH2 0x171 JUMPI PUSH0 PUSH0 REVERT JUMPDEST DUP1 PUSH4 0x6FDDE03 EQ PUSH2 0xE9 JUMPI DUP1 PUSH4 0x95EA7B3 EQ PUSH2 0x107 JUMPI DUP1 PUSH4 0x18160DDD EQ PUSH2 0x12A JUMPI JUMPDEST PUSH0 PUSH0 REVERT JUMPDEST PUSH2 0xF1 PUSH2 0x215 JUMP JUMPDEST PUSH1 0x40 MLOAD PUSH2 0xFE SWAP2 SWAP1 PUSH2 0x8CB JUMP JUMPDEST PUSH1 0x40 MLOAD DUP1 SWAP2 SUB SWAP1 RETURN JUMPDEST PUSH2 0x11A PUSH2 0x115 CALLDATASIZE PUSH1 0x4 PUSH2 0x91B JUMP JUMPDEST PUSH2 0x2A5 JUMP JUMPDEST PUSH1 0x40 MLOAD SWAP1 ISZERO ISZERO DUP2 MSTORE PUSH1 0x20 ADD PUSH2 0xFE JUMP JUMPDEST PUSH1 0x2 SLOAD JUMPDEST PUSH1 0x40 MLOAD SWAP1 DUP2 MSTORE PUSH1 0x20 ADD PUSH2 0xFE JUMP JUMPDEST PUSH2 0x11A PUSH2 0x14A CALLDATASIZE PUSH1 0x4 PUSH2 0x943 JUMP JUMPDEST PUSH2 0x2BE JUMP JUMPDEST PUSH1 0x40 MLOAD PUSH1 0x12 DUP2 MSTORE PUSH1 0x20 ADD PUSH2 0xFE JUMP JUMPDEST PUSH2 0x11A PUSH2 0x16C CALLDATASIZE PUSH1 0x4 PUSH2 0x91B JUMP JUMPDEST PUSH2 0x2E1 JUMP JUMPDEST PUSH2 0x184 PUSH2 0x17F CALLDATASIZE PUSH1 0x4 PUSH2 0x97D JUMP JUMPDEST PUSH2 0x302 JUMP JUMPDEST STOP JUMPDEST PUSH2 0x12E PUSH2 0x194 CALLDATASIZE PUSH1 0x4 PUSH2 0x994 JUMP JUMPDEST PUSH1 0x1 PUSH1 0x1 PUSH1 0xA0 SHL SUB AND PUSH0 SWAP1 DUP2 MSTORE PUSH1 0x20 DUP2 SWAP1 MSTORE PUSH1 0x40 SWAP1 KECCAK256 SLOAD SWAP1 JUMP JUMPDEST PUSH2 0x184 PUSH2 0x1BC CALLDATASIZE PUSH1 0x4 PUSH2 0x91B JUMP JUMPDEST PUSH2 0x30F JUMP JUMPDEST PUSH2 0xF1 PUSH2 0x328 JUMP JUMPDEST PUSH2 0x11A PUSH2 0x1D7 CALLDATASIZE PUSH1 0x4 PUSH2 0x91B JUMP JUMPDEST PUSH2 0x337 JUMP JUMPDEST PUSH2 0x11A PUSH2 0x1EA CALLDATASIZE PUSH1 0x4 PUSH2 0x91B JUMP JUMPDEST PUSH2 0x3B6 JUMP JUMPDEST PUSH2 0x11A PUSH2 0x1FD CALLDATASIZE PUSH1 0x4 PUSH2 0x9B4 JUMP JUMPDEST PUSH2 0x3C3 JUMP JUMPDEST PUSH2 0x12E PUSH2 0x210 CALLDATASIZE PUSH1 0x4 PUSH2 0xA37 JUMP JUMPDEST PUSH2 0x43B JUMP JUMPDEST PUSH1 0x60 PUSH1 0x3 DUP1 SLOAD PUSH2 0x224 SWAP1 PUSH2 0xA68 JUMP JUMPDEST DUP1 PUSH1 0x1F ADD PUSH1 0x20 DUP1 SWAP2 DIV MUL PUSH1 0x20 ADD PUSH1 0x40 MLOAD SWAP1 DUP2 ADD PUSH1 0x40 MSTORE DUP1 SWAP3 SWAP2 SWAP1 DUP2 DUP2 MSTORE PUSH1 0x20 ADD DUP3 DUP1 SLOAD PUSH2 0x250 SWAP1 PUSH2 0xA68 JUMP JUMPDEST DUP1 ISZERO PUSH2 0x29B JUMPI DUP1 PUSH1 0x1F LT PUSH2 0x272 JUMPI PUSH2 0x100 DUP1 DUP4 SLOAD DIV MUL DUP4 MSTORE SWAP2 PUSH1 0x20 ADD SWAP2 PUSH2 0x29B JUMP JUMPDEST DUP3 ADD SWAP2 SWAP1 PUSH0 MSTORE PUSH1 0x20 PUSH0 KECCAK256 SWAP1 JUMPDEST DUP2 SLOAD DUP2 MSTORE SWAP1 PUSH1 0x1 ADD SWAP1 PUSH1 0x20 ADD DUP1 DUP4 GT PUSH2 0x27E JUMPI DUP3 SWAP1 SUB PUSH1 0x1F AND DUP3 ADD SWAP2 JUMPDEST POP POP POP POP POP SWAP1 POP SWAP1 JUMP JUMPDEST PUSH0 CALLER PUSH2 0x2B2 DUP2 DUP6 DUP6 PUSH2 0x465 JUMP JUMPDEST PUSH1 0x1 SWAP2 POP POP JUMPDEST SWAP3 SWAP2 POP POP JUMP JUMPDEST PUSH0 CALLER PUSH2 0x2CB DUP6 DUP3 DUP6 PUSH2 0x589 JUMP JUMPDEST PUSH2 0x2D6 DUP6 DUP6 DUP6 PUSH2 0x601 JUMP JUMPDEST POP PUSH1 0x1 SWAP5 SWAP4 POP POP POP POP JUMP JUMPDEST PUSH0 CALLER PUSH2 0x2B2 DUP2 DUP6 DUP6 PUSH2 0x2F3 DUP4 DUP4 PUSH2 0x43B JUMP JUMPDEST PUSH2 0x2FD SWAP2 SWAP1 PUSH2 0xAA0 JUMP JUMPDEST PUSH2 0x465 JUMP JUMPDEST PUSH2 0x30C CALLER DUP3 PUSH2 0x7A3 JUMP JUMPDEST POP JUMP JUMPDEST PUSH2 0x31A DUP3 CALLER DUP4 PUSH2 0x589 JUMP JUMPDEST PUSH2 0x324 DUP3 DUP3 PUSH2 0x7A3 JUMP JUMPDEST POP POP JUMP JUMPDEST PUSH1 0x60 PUSH1 0x4 DUP1 SLOAD PUSH2 0x224 SWAP1 PUSH2 0xA68 JUMP JUMPDEST PUSH0 CALLER DUP2 PUSH2 0x344 DUP3 DUP7 PUSH2 0x43B JUMP JUMPDEST SWAP1 POP DUP4 DUP2 LT ISZERO PUSH2 0x3A9 JUMPI PUSH1 0x40 MLOAD PUSH3 0x461BCD PUSH1 0xE5 SHL DUP2 MSTORE PUSH1 0x20 PUSH1 0x4 DUP3 ADD MSTORE PUSH1 0x25 PUSH1 0x24 DUP3 ADD MSTORE PUSH32 0x45524332303A2064656372656173656420616C6C6F77616E63652062656C6F77 PUSH1 0x44 DUP3 ADD MSTORE PUSH5 0x207A65726F PUSH1 0xD8 SHL PUSH1 0x64 DUP3 ADD MSTORE PUSH1 0x84 ADD JUMPDEST PUSH1 0x40 MLOAD DUP1 SWAP2 SUB SWAP1 REVERT JUMPDEST PUSH2 0x2D6 DUP3 DUP7 DUP7 DUP5 SUB PUSH2 0x465 JUMP JUMPDEST PUSH0 CALLER PUSH2 0x2B2 DUP2 DUP6 DUP6 PUSH2 0x601 JUMP JUMPDEST PUSH0 PUSH2 0x3CE DUP6 DUP6 PUSH2 0x2A5 JUMP JUMPDEST POP PUSH1 0x40 MLOAD PUSH4 0x8F4FFCB1 PUSH1 0xE0 SHL DUP2 MSTORE PUSH1 0x1 PUSH1 0x1 PUSH1 0xA0 SHL SUB DUP7 AND SWAP1 PUSH4 0x8F4FFCB1 SWAP1 PUSH2 0x403 SWAP1 CALLER SWAP1 DUP9 SWAP1 ADDRESS SWAP1 DUP10 SWAP1 DUP10 SWAP1 PUSH1 0x4 ADD PUSH2 0xABF JUMP JUMPDEST PUSH0 PUSH1 0x40 MLOAD DUP1 DUP4 SUB DUP2 PUSH0 DUP8 DUP1 EXTCODESIZE ISZERO DUP1 ISZERO PUSH2 0x41A JUMPI PUSH0 PUSH0 REVERT JUMPDEST POP GAS CALL ISZERO DUP1 ISZERO PUSH2 0x42C JUMPI RETURNDATASIZE PUSH0 PUSH0 RETURNDATACOPY RETURNDATASIZE PUSH0 REVERT JUMPDEST POP PUSH1 0x1 SWAP9 SWAP8 POP POP POP POP POP POP POP POP JUMP JUMPDEST PUSH1 0x1 PUSH1 0x1 PUSH1 0xA0 SHL SUB SWAP2 DUP3 AND PUSH0 SWAP1 DUP2 MSTORE PUSH1 0x1 PUSH1 0x20 SWAP1 DUP2 MSTORE PUSH1 0x40 DUP1 DUP4 KECCAK256 SWAP4 SWAP1 SWAP5 AND DUP3 MSTORE SWAP2 SWAP1 SWAP2 MSTORE KECCAK256 SLOAD SWAP1 JUMP JUMPDEST PUSH1 0x1 PUSH1 0x1 PUSH1 0xA0 SHL SUB DUP4 AND PUSH2 0x4C7 JUMPI PUSH1 0x40 MLOAD PUSH3 0x461BCD PUSH1 0xE5 SHL DUP2 MSTORE PUSH1 0x20 PUSH1 0x4 DUP3 ADD MSTORE PUSH1 0x24 DUP1 DUP3 ADD MSTORE PUSH32 0x45524332303A20617070726F76652066726F6D20746865207A65726F20616464 PUSH1 0x44 DUP3 ADD MSTORE PUSH4 0x72657373 PUSH1 0xE0 SHL PUSH1 0x64 DUP3 ADD MSTORE PUSH1 0x84 ADD PUSH2 0x3A0 JUMP JUMPDEST PUSH1 0x1 PUSH1 0x1 PUSH1 0xA0 SHL SUB DUP3 AND PUSH2 0x528 JUMPI PUSH1 0x40 MLOAD PUSH3 0x461BCD PUSH1 0xE5 SHL DUP2 MSTORE PUSH1 0x20 PUSH1 0x4 DUP3 ADD MSTORE PUSH1 0x22 PUSH1 0x24 DUP3 ADD MSTORE PUSH32 0x45524332303A20617070726F766520746F20746865207A65726F206164647265 PUSH1 0x44 DUP3 ADD MSTORE PUSH2 0x7373 PUSH1 0xF0 SHL PUSH1 0x64 DUP3 ADD MSTORE PUSH1 0x84 ADD PUSH2 0x3A0 JUMP JUMPDEST PUSH1 0x1 PUSH1 0x1 PUSH1 0xA0 SHL SUB DUP4 DUP2 AND PUSH0 DUP2 DUP2 MSTORE PUSH1 0x1 PUSH1 0x20 SWAP1 DUP2 MSTORE PUSH1 0x40 DUP1 DUP4 KECCAK256 SWAP5 DUP8 AND DUP1 DUP5 MSTORE SWAP5 DUP3 MSTORE SWAP2 DUP3 SWAP1 KECCAK256 DUP6 SWAP1 SSTORE SWAP1 MLOAD DUP5 DUP2 MSTORE PUSH32 0x8C5BE1E5EBEC7D5BD14F71427D1E84F3DD0314C0F7B2291E5B200AC8C7C3B925 SWAP2 ADD JUMPDEST PUSH1 0x40 MLOAD DUP1 SWAP2 SUB SWAP1 LOG3 POP POP POP JUMP JUMPDEST PUSH0 PUSH2 0x594 DUP5 DUP5 PUSH2 0x43B JUMP JUMPDEST SWAP1 POP PUSH0 NOT DUP2 EQ PUSH2 0x5FB JUMPI DUP2 DUP2 LT ISZERO PUSH2 0x5EE JUMPI PUSH1 0x40 MLOAD PUSH3 0x461BCD PUSH1 0xE5 SHL DUP2 MSTORE PUSH1 0x20 PUSH1 0x4 DUP3 ADD MSTORE PUSH1 0x1D PUSH1 0x24 DUP3 ADD MSTORE PUSH32 0x45524332303A20696E73756666696369656E7420616C6C6F77616E6365000000 PUSH1 0x44 DUP3 ADD MSTORE PUSH1 0x64 ADD PUSH2 0x3A0 JUMP JUMPDEST PUSH2 0x5FB DUP5 DUP5 DUP5 DUP5 SUB PUSH2 0x465 JUMP JUMPDEST POP POP POP POP JUMP JUMPDEST PUSH1 0x1 PUSH1 0x1 PUSH1 0xA0 SHL SUB DUP4 AND PUSH2 0x665 JUMPI PUSH1 0x40 MLOAD PUSH3 0x461BCD PUSH1 0xE5 SHL DUP2 MSTORE PUSH1 0x20 PUSH1 0x4 DUP3 ADD MSTORE PUSH1 0x25 PUSH1 0x24 DUP3 ADD MSTORE PUSH32 0x45524332303A207472616E736665722066726F6D20746865207A65726F206164 PUSH1 0x44 DUP3 ADD MSTORE PUSH5 0x6472657373 PUSH1 0xD8 SHL PUSH1 0x64 DUP3 ADD MSTORE PUSH1 0x84 ADD PUSH2 0x3A0 JUMP JUMPDEST PUSH1 0x1 PUSH1 0x1 PUSH1 0xA0 SHL SUB DUP3 AND PUSH2 0x6C7 JUMPI PUSH1 0x40 MLOAD PUSH3 0x461BCD PUSH1 0xE5 SHL DUP2 MSTORE PUSH1 0x20 PUSH1 0x4 DUP3 ADD MSTORE PUSH1 0x23 PUSH1 0x24 DUP3 ADD MSTORE PUSH32 0x45524332303A207472616E7366657220746F20746865207A65726F2061646472 PUSH1 0x44 DUP3 ADD MSTORE PUSH3 0x657373 PUSH1 0xE8 SHL PUSH1 0x64 DUP3 ADD MSTORE PUSH1 0x84 ADD PUSH2 0x3A0 JUMP JUMPDEST PUSH1 0x1 PUSH1 0x1 PUSH1 0xA0 SHL SUB DUP4 AND PUSH0 SWAP1 DUP2 MSTORE PUSH1 0x20 DUP2 SWAP1 MSTORE PUSH1 0x40 SWAP1 KECCAK256 SLOAD DUP2 DUP2 LT ISZERO PUSH2 0x73E JUMPI PUSH1 0x40 MLOAD PUSH3 0x461BCD PUSH1 0xE5 SHL DUP2 MSTORE PUSH1 0x20 PUSH1 0x4 DUP3 ADD MSTORE PUSH1 0x26 PUSH1 0x24 DUP3 ADD MSTORE PUSH32 0x45524332303A207472616E7366657220616D6F756E7420657863656564732062 PUSH1 0x44 DUP3 ADD MSTORE PUSH6 0x616C616E6365 PUSH1 0xD0 SHL PUSH1 0x64 DUP3 ADD MSTORE PUSH1 0x84 ADD PUSH2 0x3A0 JUMP JUMPDEST PUSH1 0x1 PUSH1 0x1 PUSH1 0xA0 SHL SUB DUP5 DUP2 AND PUSH0 DUP2 DUP2 MSTORE PUSH1 0x20 DUP2 DUP2 MSTORE PUSH1 0x40 DUP1 DUP4 KECCAK256 DUP8 DUP8 SUB SWAP1 SSTORE SWAP4 DUP8 AND DUP1 DUP4 MSTORE SWAP2 DUP5 SWAP1 KECCAK256 DUP1 SLOAD DUP8 ADD SWAP1 SSTORE SWAP3 MLOAD DUP6 DUP2 MSTORE SWAP1 SWAP3 PUSH32 0xDDF252AD1BE2C89B69C2B068FC378DAA952BA7F163C4A11628F55A4DF523B3EF SWAP2 ADD PUSH1 0x40 MLOAD DUP1 SWAP2 SUB SWAP1 LOG3 PUSH2 0x5FB JUMP JUMPDEST PUSH1 0x1 PUSH1 0x1 PUSH1 0xA0 SHL SUB DUP3 AND PUSH2 0x803 JUMPI PUSH1 0x40 MLOAD PUSH3 0x461BCD PUSH1 0xE5 SHL DUP2 MSTORE PUSH1 0x20 PUSH1 0x4 DUP3 ADD MSTORE PUSH1 0x21 PUSH1 0x24 DUP3 ADD MSTORE PUSH32 0x45524332303A206275726E2066726F6D20746865207A65726F20616464726573 PUSH1 0x44 DUP3 ADD MSTORE PUSH1 0x73 PUSH1 0xF8 SHL PUSH1 0x64 DUP3 ADD MSTORE PUSH1 0x84 ADD PUSH2 0x3A0 JUMP JUMPDEST PUSH1 0x1 PUSH1 0x1 PUSH1 0xA0 SHL SUB DUP3 AND PUSH0 SWAP1 DUP2 MSTORE PUSH1 0x20 DUP2 SWAP1 MSTORE PUSH1 0x40 SWAP1 KECCAK256 SLOAD DUP2 DUP2 LT ISZERO PUSH2 0x876 JUMPI PUSH1 0x40 MLOAD PUSH3 0x461BCD PUSH1 0xE5 SHL DUP2 MSTORE PUSH1 0x20 PUSH1 0x4 DUP3 ADD MSTORE PUSH1 0x22 PUSH1 0x24 DUP3 ADD MSTORE PUSH32 0x45524332303A206275726E20616D6F756E7420657863656564732062616C616E PUSH1 0x44 DUP3 ADD MSTORE PUSH2 0x6365 PUSH1 0xF0 SHL PUSH1 0x64 DUP3 ADD MSTORE PUSH1 0x84 ADD PUSH2 0x3A0 JUMP JUMPDEST PUSH1 0x1 PUSH1 0x1 PUSH1 0xA0 SHL SUB DUP4 AND PUSH0 DUP2 DUP2 MSTORE PUSH1 0x20 DUP2 DUP2 MSTORE PUSH1 0x40 DUP1 DUP4 KECCAK256 DUP7 DUP7 SUB SWAP1 SSTORE PUSH1 0x2 DUP1 SLOAD DUP8 SWAP1 SUB SWAP1 SSTORE MLOAD DUP6 DUP2 MSTORE SWAP2 SWAP3 SWAP2 PUSH32 0xDDF252AD1BE2C89B69C2B068FC378DAA952BA7F163C4A11628F55A4DF523B3EF SWAP2 ADD PUSH2 0x57C JUMP JUMPDEST PUSH1 0x20 DUP2 MSTORE PUSH0 DUP3 MLOAD DUP1 PUSH1 0x20 DUP5 ADD MSTORE DUP1 PUSH1 0x20 DUP6 ADD PUSH1 0x40 DUP6 ADD MCOPY PUSH0 PUSH1 0x40 DUP3 DUP6 ADD ADD MSTORE PUSH1 0x40 PUSH1 0x1F NOT PUSH1 0x1F DUP4 ADD AND DUP5 ADD ADD SWAP2 POP POP SWAP3 SWAP2 POP POP JUMP JUMPDEST DUP1 CALLDATALOAD PUSH1 0x1 PUSH1 0x1 PUSH1 0xA0 SHL SUB DUP2 AND DUP2 EQ PUSH2 0x916 JUMPI PUSH0 PUSH0 REVERT JUMPDEST SWAP2 SWAP1 POP JUMP JUMPDEST PUSH0 PUSH0 PUSH1 0x40 DUP4 DUP6 SUB SLT ISZERO PUSH2 0x92C JUMPI PUSH0 PUSH0 REVERT JUMPDEST PUSH2 0x935 DUP4 PUSH2 0x900 JUMP JUMPDEST SWAP5 PUSH1 0x20 SWAP4 SWAP1 SWAP4 ADD CALLDATALOAD SWAP4 POP POP POP JUMP JUMPDEST PUSH0 PUSH0 PUSH0 PUSH1 0x60 DUP5 DUP7 SUB SLT ISZERO PUSH2 0x955 JUMPI PUSH0 PUSH0 REVERT JUMPDEST PUSH2 0x95E DUP5 PUSH2 0x900 JUMP JUMPDEST SWAP3 POP PUSH2 0x96C PUSH1 0x20 DUP6 ADD PUSH2 0x900 JUMP JUMPDEST SWAP3 SWAP6 SWAP3 SWAP5 POP POP POP PUSH1 0x40 SWAP2 SWAP1 SWAP2 ADD CALLDATALOAD SWAP1 JUMP JUMPDEST PUSH0 PUSH1 0x20 DUP3 DUP5 SUB SLT ISZERO PUSH2 0x98D JUMPI PUSH0 PUSH0 REVERT JUMPDEST POP CALLDATALOAD SWAP2 SWAP1 POP JUMP JUMPDEST PUSH0 PUSH1 0x20 DUP3 DUP5 SUB SLT ISZERO PUSH2 0x9A4 JUMPI PUSH0 PUSH0 REVERT JUMPDEST PUSH2 0x9AD DUP3 PUSH2 0x900 JUMP JUMPDEST SWAP4 SWAP3 POP POP POP JUMP JUMPDEST PUSH0 PUSH0 PUSH0 PUSH0 PUSH1 0x60 DUP6 DUP8 SUB SLT ISZERO PUSH2 0x9C7 JUMPI PUSH0 PUSH0 REVERT JUMPDEST PUSH2 0x9D0 DUP6 PUSH2 0x900 JUMP JUMPDEST SWAP4 POP PUSH1 0x20 DUP6 ADD CALLDATALOAD SWAP3 POP PUSH1 0x40 DUP6 ADD CALLDATALOAD PUSH8 0xFFFFFFFFFFFFFFFF DUP2 GT ISZERO PUSH2 0x9F2 JUMPI PUSH0 PUSH0 REVERT JUMPDEST DUP6 ADD PUSH1 0x1F DUP2 ADD DUP8 SGT PUSH2 0xA02 JUMPI PUSH0 PUSH0 REVERT JUMPDEST DUP1 CALLDATALOAD PUSH8 0xFFFFFFFFFFFFFFFF DUP2 GT ISZERO PUSH2 0xA18 JUMPI PUSH0 PUSH0 REVERT JUMPDEST DUP8 PUSH1 0x20 DUP3 DUP5 ADD ADD GT ISZERO PUSH2 0xA29 JUMPI PUSH0 PUSH0 REVERT JUMPDEST SWAP5 SWAP8 SWAP4 SWAP7 POP PUSH1 0x20 ADD SWAP5 POP POP POP JUMP JUMPDEST PUSH0 PUSH0 PUSH1 0x40 DUP4 DUP6 SUB SLT ISZERO PUSH2 0xA48 JUMPI PUSH0 PUSH0 REVERT JUMPDEST PUSH2 0xA51 DUP4 PUSH2 0x900 JUMP JUMPDEST SWAP2 POP PUSH2 0xA5F PUSH1 0x20 DUP5 ADD PUSH2 0x900 JUMP JUMPDEST SWAP1 POP SWAP3 POP SWAP3 SWAP1 POP JUMP JUMPDEST PUSH1 0x1 DUP2 DUP2 SHR SWAP1 DUP3 AND DUP1 PUSH2 0xA7C JUMPI PUSH1 0x7F DUP3 AND SWAP2 POP JUMPDEST PUSH1 0x20 DUP3 LT DUP2 SUB PUSH2 0xA9A JUMPI PUSH4 0x4E487B71 PUSH1 0xE0 SHL PUSH0 MSTORE PUSH1 0x22 PUSH1 0x4 MSTORE PUSH1 0x24 PUSH0 REVERT JUMPDEST POP SWAP2 SWAP1 POP JUMP JUMPDEST DUP1 DUP3 ADD DUP1 DUP3 GT ISZERO PUSH2 0x2B8 JUMPI PUSH4 0x4E487B71 PUSH1 0xE0 SHL PUSH0 MSTORE PUSH1 0x11 PUSH1 0x4 MSTORE PUSH1 0x24 PUSH0 REVERT JUMPDEST PUSH1 0x1 PUSH1 0x1 PUSH1 0xA0 SHL SUB DUP7 DUP2 AND DUP3 MSTORE PUSH1 0x20 DUP3 ADD DUP7 SWAP1 MSTORE DUP5 AND PUSH1 0x40 DUP3 ADD MSTORE PUSH1 0x80 PUSH1 0x60 DUP3 ADD DUP2 SWAP1 MSTORE DUP2 ADD DUP3 SWAP1 MSTORE DUP2 DUP4 PUSH1 0xA0 DUP4 ADD CALLDATACOPY PUSH0 DUP2 DUP4 ADD PUSH1 0xA0 SWAP1 DUP2 ADD SWAP2 SWAP1 SWAP2 MSTORE PUSH1 0x1F SWAP1 SWAP3 ADD PUSH1 0x1F NOT AND ADD ADD SWAP5 SWAP4 POP POP POP POP JUMP INVALID LOG2 PUSH5 0x6970667358 0x22 SLT KECCAK256 0xC0 0xB8 PC OR 0xC0 0xDA PUSH27 0x1475B147CFD758074D426A7B1460015AAD35CC56C4F7852EF36473 PUSH16 0x6C634300081D00330000000000000000 "
				},
				"gasEstimates": {
					"creation": {
						"codeDepositCost": "577000",
						"executionCost": "infinite",
						"totalCost": "infinite"
					},
					"external": {
						"allowance(address,address)": "infinite",
						"approve(address,uint256)": "24647",
						"approveAndCall(address,uint256,bytes)": "infinite",
						"balanceOf(address)": "2560",
						"burn(uint256)": "50845",
						"burnFrom(address,uint256)": "infinite",
						"decimals()": "221",
						"decreaseAllowance(address,uint256)": "26967",
						"increaseAllowance(address,uint256)": "infinite",
						"name()": "infinite",
						"symbol()": "infinite",
						"totalSupply()": "2348",
						"transfer(address,uint256)": "51088",
						"transferFrom(address,address,uint256)": "infinite"
					}
				},
				"methodIdentifiers": {
					"allowance(address,address)": "dd62ed3e",
					"approve(address,uint256)": "095ea7b3",
					"approveAndCall(address,uint256,bytes)": "cae9ca51",
					"balanceOf(address)": "70a08231",
					"burn(uint256)": "42966c68",
					"burnFrom(address,uint256)": "79cc6790",
					"decimals()": "313ce567",
					"decreaseAllowance(address,uint256)": "a457c2d7",
					"increaseAllowance(address,uint256)": "39509351",
					"name()": "06fdde03",
					"symbol()": "95d89b41",
					"totalSupply()": "18160ddd",
					"transfer(address,uint256)": "a9059cbb",
					"transferFrom(address,address,uint256)": "23b872dd"
				}
			},
			"storageLayout": {
				"storage": [
					{
						"astId": 15,
						"contract": "watt.sol:WattCoin",
						"label": "_balances",
						"offset": 0,
						"slot": "0",
						"type": "t_mapping(t_address,t_uint256)"
					},
					{
						"astId": 21,
						"contract": "watt.sol:WattCoin",
						"label": "_allowances",
						"offset": 0,
						"slot": "1",
						"type": "t_mapping(t_address,t_mapping(t_address,t_uint256))"
					},
					{
						"astId": 23,
						"contract": "watt.sol:WattCoin",
						"label": "_totalSupply",
						"offset": 0,
						"slot": "2",
						"type": "t_uint256"
					},
					{
						"astId": 25,
						"contract": "watt.sol:WattCoin",
						"label": "_name",
						"offset": 0,
						"slot": "3",
						"type": "t_string_storage"
					},
					{
						"astId": 27,
						"contract": "watt.sol:WattCoin",
						"label": "_symbol",
						"offset": 0,
						"slot": "4",
						"type": "t_string_storage"
					}
				],
				"types": {
					"t_address": {
						"encoding": "inplace",
						"label": "address",
						"numberOfBytes": "20"
					},
					"t_mapping(t_address,t_mapping(t_address,t_uint256))": {
						"encoding": "mapping",
						"key": "t_address",
						"label": "mapping(address => mapping(address => uint256))",
						"numberOfBytes": "32",
						"value": "t_mapping(t_address,t_uint256)"
					},
					"t_mapping(t_address,t_uint256)": {
						"encoding": "mapping",
						"key": "t_address",
						"label": "mapping(address => uint256)",
						"numberOfBytes": "32",
						"value": "t_uint256"
					},
					"t_string_storage": {
						"encoding": "bytes",
						"label": "string",
						"numberOfBytes": "32"
					},
					"t_uint256": {
						"encoding": "inplace",
						"label": "uint256",
						"numberOfBytes": "32"
					}
				}
			},
			"userdoc": {
				"kind": "user",
				"methods": {},
				"version": 1
			}
		}
	}
}